{
  "_format": "hh-sol-artifact-1",
  "contractName": "MembershipVerifier",
  "sourceName": "contracts/MembershipVerifier.sol",
  "abi": [
    {
      "inputs": [
        {
          "internalType": "uint256[24]",
          "name": "_proof",
          "type": "uint256[24]"
        },
        {
          "internalType": "uint256[2]",
          "name": "_pubSignals",
          "type": "uint256[2]"
        }
      ],
      "name": "verifyProof",
      "outputs": [
        {
          "internalType": "bool",
          "name": "",
          "type": "bool"
        }
      ],
      "stateMutability": "view",
      "type": "function"
    }
  ],
  "bytecode": "0x6080604052348015600f57600080fd5b50611da98061001f6000396000f3fe608060405234801561001057600080fd5b506004361061002b5760003560e01c8063c0e9d81c14610030575b600080fd5b61004a60048036038101906100459190611cfb565b610060565b6040516100579190611d58565b60405180910390f35b6000611c3e565b600080600184846000805b821561009c5782840591508482028603905084955080945082820284039050829350809250610072565b60018411156100aa57600080fd5b60008612156100b95788860195505b85965050505050505092915050565b60405181602084028301815160208301925060005b82841015610120578185527f30644e72e131a029b85045b68181585d2833e84879b9709143e1f593f00000018451830991506020850194506020840193506100dd565b61014a7f30644e72e131a029b85045b68181585d2833e84879b9709143e1f593f000000183610067565b91506020850394506020840393508592505b828411156101c6577f30644e72e131a029b85045b68181585d2833e84879b9709143e1f593f00000018551830990507f30644e72e131a029b85045b68181585d2833e84879b9709143e1f593f000000184518309915080845260208503945060208403935061015c565b81845250505050505050565b7f30644e72e131a029b85045b68181585d2833e84879b9709143e1f593f00000018110610203576000805260206000f35b50565b610212610244356101d2565b61021e610264356101d2565b61022a610284356101d2565b6102366102a4356101d2565b6102426102c4356101d2565b61024e6102e4356101d2565b565b6000806040517f28bd7f25a2a9db7c179852353e920da2f7e4b1c9933affd8e0a6efe155834a1f81527f2b13e67aef489e594c25c362551d1f5cd4245a8b2b738128c1245c46444ff13460208201527f28afe4bcf9bf71b9de7ae782b8a37af08f6c472008e4ede95cae52bfe84ccce760408201527f17c0d885eda53ee7a00f0ccea006d502121e617f1e50ac271f152afd84fdfb1e60608201527f115d011b62c500cbe940cc0b5b620b164d0bcecfae44d0b90d46baca7165a5f660808201527f1c9713bcfb8a0b5248a65b1be90711266274c13a62848be1f95c48c705162fb160a08201527f2684b059e4309d99ac39a299813c47ff38a27a0468d9b59e677c193e44df323960c08201527f23100a4c342c818ae9d0600dc1b5fbcb564cb893e7849ffca0f35bb9dcd3f83660e08201527f0c2036bdac658b30184f8a7acbff8d7799412040859cf3ee982ca6a03542a0b16101008201527f2f71a821bde0b5f38158ec49c49d7f91e0322f24b6535e1c6b3d5381d07c8b2f6101208201527f0c4181a93f208cc806eb8bdc7a0141dac1e695b8e77b87247c5c60d0c48b41d26101408201527f0a40874c1321b37f96c4074345f4564533c25761fcffe14d0cd151610fbb79dc6101608201527f076bc8be41909e2e26ac93d53a36bdb1e544c5ba06c50b9d1dbf7dfafa44ec916101808201527f0862b7cad03363fdc0d69dbdb8693993c952025654a34b3d15ea4cfa54f0cbd56101a08201527f11fa979e5798485469650423f36a0f6e3143dae939d84d9ac8d2089a611f871e6101c08201527f20f429c61bd17de39b94f92ded6e95a92733bec8d14e2440ece3bd9d7ee988a96101e0820152600085013561020082015260208501356102208201526004356102408201526020600401356102608201526044356102808201526020604401356102a08201526084356102c08201526020608401356102e08201527f30644e72e131a029b85045b68181585d2833e84879b9709143e1f593f000000161030082200692508260208501527f30644e72e131a029b85045b68181585d2833e84879b9709143e1f593f0000001602080860120066040850152602084015181526040840151602082015260c4356040820152602060c4013560608201527f30644e72e131a029b85045b68181585d2833e84879b9709143e1f593f0000001608082200691508160008501527f30644e72e131a029b85045b68181585d2833e84879b9709143e1f593f00000018283096102c08501528181526101043560208201526020610104013560408201526101443560608201526020610144013560808201526101843560a08201526020610184013560c08201527f30644e72e131a029b85045b68181585d2833e84879b9709143e1f593f000000160e082200691508160608501528181526102443560208201526102643560408201526102843560608201526102a43560808201526102c43560a08201526102e43560c08201527f30644e72e131a029b85045b68181585d2833e84879b9709143e1f593f000000160e08220068060c08601527f30644e72e131a029b85045b68181585d2833e84879b9709143e1f593f000000183850960a08601527f30644e72e131a029b85045b68181585d2833e84879b9709143e1f593f000000183840992507f30644e72e131a029b85045b68181585d2833e84879b9709143e1f593f000000183840992507f30644e72e131a029b85045b68181585d2833e84879b9709143e1f593f000000183840992507f30644e72e131a029b85045b68181585d2833e84879b9709143e1f593f000000183840992507f30644e72e131a029b85045b68181585d2833e84879b9709143e1f593f000000183840992507f30644e72e131a029b85045b68181585d2833e84879b9709143e1f593f000000183840992507f30644e72e131a029b85045b68181585d2833e84879b9709143e1f593f000000183840992507f30644e72e131a029b85045b68181585d2833e84879b9709143e1f593f000000183840992507f30644e72e131a029b85045b68181585d2833e84879b9709143e1f593f000000183840992507f30644e72e131a029b85045b68181585d2833e84879b9709143e1f593f000000183840992507f30644e72e131a029b85045b68181585d2833e84879b9709143e1f593f000000183840992507f30644e72e131a029b85045b68181585d2833e84879b9709143e1f593f000000183840992507f30644e72e131a029b85045b68181585d2833e84879b9709143e1f593f000000183840992508260808601527f30644e72e131a029b85045b68181585d2833e84879b9709143e1f593f0000001806001850301069250826102e0860152826103008601527f30644e72e131a029b85045b68181585d2833e84879b9709143e1f593f000000181820992508260e08601527f30644e72e131a029b85045b68181585d2833e84879b9709143e1f593f00000018184099250826101008601527f30644e72e131a029b85045b68181585d2833e84879b9709143e1f593f00000018184099250826101208601527f30644e72e131a029b85045b68181585d2833e84879b9709143e1f593f00000018184099250826101408601526101c435825260206101c4013560208301526102043560408301526020610204013560608301527f30644e72e131a029b85045b68181585d2833e84879b9709143e1f593f00000016080832006610160860152505050505050565b60017f30644e72e131a029b85045b68181585d2833e84879b9709143e1f593f0000001807f30644e72e131a029b85045b68181585d2833e84879b9709143e1f593f0000001836060860151030106612000096103208301527f30644e72e131a029b85045b68181585d2833e84879b9709143e1f593f00000017e6fab49b869ae62001deac878b2667bd31bf3e28e3a2d764aa49b8d9bbdd310820990507f30644e72e131a029b85045b68181585d2833e84879b9709143e1f593f0000001807f30644e72e131a029b85045b68181585d2833e84879b9709143e1f593f000000183606086015103010661200009610340830152610b22600361030084016100c8565b6102e0820151600191507f30644e72e131a029b85045b68181585d2833e84879b9709143e1f593f000000181610320850151096103208401527f30644e72e131a029b85045b68181585d2833e84879b9709143e1f593f00000017e6fab49b869ae62001deac878b2667bd31bf3e28e3a2d764aa49b8d9bbdd310830991507f30644e72e131a029b85045b68181585d2833e84879b9709143e1f593f00000018082610340860151098309610340840152505050565b60007f30644e72e131a029b85045b68181585d2833e84879b9709143e1f593f0000001807f30644e72e131a029b85045b68181585d2833e84879b9709143e1f593f00000016000860135610320860151098303010690507f30644e72e131a029b85045b68181585d2833e84879b9709143e1f593f0000001807f30644e72e131a029b85045b68181585d2833e84879b9709143e1f593f000000160208601356103408601510983030106905080610180830152505050565b6101808101517f30644e72e131a029b85045b68181585d2833e84879b9709143e1f593f00000016102c0830151610320840151097f30644e72e131a029b85045b68181585d2833e84879b9709143e1f593f0000001806102a43560208601510961024435087f30644e72e131a029b85045b68181585d2833e84879b9709143e1f593f00000016040850151820890507f30644e72e131a029b85045b68181585d2833e84879b9709143e1f593f0000001806102c43560208701510961026435087f30644e72e131a029b85045b68181585d2833e84879b9709143e1f593f00000016040860151820890507f30644e72e131a029b85045b68181585d2833e84879b9709143e1f593f0000001604086015161028435087f30644e72e131a029b85045b68181585d2833e84879b9709143e1f593f0000001817f30644e72e131a029b85045b68181585d2833e84879b9709143e1f593f0000001848609097f30644e72e131a029b85045b68181585d2833e84879b9709143e1f593f00000016102e435820990507f30644e72e131a029b85045b68181585d2833e84879b9709143e1f593f00000016000880151820990507f30644e72e131a029b85045b68181585d2833e84879b9709143e1f593f000000180867f30644e72e131a029b85045b68181585d2833e84879b9709143e1f593f0000001030687087f30644e72e131a029b85045b68181585d2833e84879b9709143e1f593f000000180837f30644e72e131a029b85045b68181585d2833e84879b9709143e1f593f0000001030682089050806101a08901525050505050505050565b81518152602082015160208201525050565b818152826020820152505050565b81358152602082013560208201525050565b6040518151815260208201516020820152825160408201526020830151606082015260408260808360066107d05a03fa80610f52576000805260206000f35b50505050565b600060405183815284602082015285604082015260408160608360076107d05a03fa915081610f8b576000805260206000f35b825160408201526020830151606082015260408360808360066107d05a03fa915081610fbb576000805260206000f35b505050505050565b600060405183815284602082015285604082015260408360608360076107d05a03fa915081610ff6576000805260206000f35b505050505050565b61100f836020840151845184610fc3565b505050565b6101c08101604082015160405161010081016040526110747f2f71a821bde0b5f38158ec49c49d7f91e0322f24b6535e1c6b3d5381d07c8b2f7f0c2036bdac658b30184f8a7acbff8d7799412040859cf3ee982ca6a03542a0b185610ef3565b6110e97f30644e72e131a029b85045b68181585d2833e84879b9709143e1f593f00000016102643561024435097f2b13e67aef489e594c25c362551d1f5cd4245a8b2b738128c1245c46444ff1347f28bd7f25a2a9db7c179852353e920da2f7e4b1c9933affd8e0a6efe155834a1f86610f58565b611138610244357f17c0d885eda53ee7a00f0ccea006d502121e617f1e50ac271f152afd84fdfb1e7f28afe4bcf9bf71b9de7ae782b8a37af08f6c472008e4ede95cae52bfe84ccce786610f58565b611187610264357f1c9713bcfb8a0b5248a65b1be90711266274c13a62848be1f95c48c705162fb17f115d011b62c500cbe940cc0b5b620b164d0bcecfae44d0b90d46baca7165a5f686610f58565b6111d6610284357f23100a4c342c818ae9d0600dc1b5fbcb564cb893e7849ffca0f35bb9dcd3f8367f2684b059e4309d99ac39a299813c47ff38a27a0468d9b59e677c193e44df323986610f58565b60a08401517f30644e72e131a029b85045b68181585d2833e84879b9709143e1f593f0000001837f30644e72e131a029b85045b68181585d2833e84879b9709143e1f593f0000001836102443508087f30644e72e131a029b85045b68181585d2833e84879b9709143e1f593f0000001847f30644e72e131a029b85045b68181585d2833e84879b9709143e1f593f000000180600286096102643508087f30644e72e131a029b85045b68181585d2833e84879b9709143e1f593f0000001857f30644e72e131a029b85045b68181585d2833e84879b9709143e1f593f000000180600387096102843508087f30644e72e131a029b85045b68181585d2833e84879b9709143e1f593f000000160008901517f30644e72e131a029b85045b68181585d2833e84879b9709143e1f593f0000001837f30644e72e131a029b85045b68181585d2833e84879b9709143e1f593f000000186880909097f30644e72e131a029b85045b68181585d2833e84879b9709143e1f593f00000016102c08a01516103208b01510961136b60c460c08901610f01565b6113c47f30644e72e131a029b85045b68181585d2833e84879b9709143e1f593f00000016101608c01517f30644e72e131a029b85045b68181585d2833e84879b9709143e1f593f00000018486080860c0890189610ffe565b7f30644e72e131a029b85045b68181585d2833e84879b9709143e1f593f0000001887f30644e72e131a029b85045b68181585d2833e84879b9709143e1f593f0000001806102a43560208f01510961024435080894507f30644e72e131a029b85045b68181585d2833e84879b9709143e1f593f0000001887f30644e72e131a029b85045b68181585d2833e84879b9709143e1f593f0000001806102c43560208f01510961026435080893507f30644e72e131a029b85045b68181585d2833e84879b9709143e1f593f00000016102e4357f30644e72e131a029b85045b68181585d2833e84879b9709143e1f593f000000160208d015160008e0151090992506115597f30644e72e131a029b85045b68181585d2833e84879b9709143e1f593f0000001847f30644e72e131a029b85045b68181585d2833e84879b9709143e1f593f0000001878909097f20f429c61bd17de39b94f92ded6e95a92733bec8d14e2440ece3bd9d7ee988a97f11fa979e5798485469650423f36a0f6e3143dae939d84d9ac8d2089a611f871e60408b01610fc3565b61156861010460808901610f01565b61158460808b0151602061014401356101443560808b01610f58565b7f30644e72e131a029b85045b68181585d2833e84879b9709143e1f593f000000160808b015160808c0151096115c881602061018401356101843560808c01610f58565b6115e46102e08c015160a08a015160808b015160808c01610fc3565b7f30644e72e131a029b85045b68181585d97816a916871ca8d3c208c16d87cfd47602060408a0101517f30644e72e131a029b85045b68181585d97816a916871ca8d3c208c16d87cfd470306602060408a0101527f30644e72e131a029b85045b68181585d97816a916871ca8d3c208c16d87cfd4760a08901517f30644e72e131a029b85045b68181585d97816a916871ca8d3c208c16d87cfd47030660a0890152611690888b610f13565b61169d604089018b610f13565b6116aa608089018b610f13565b5050505050505050505050565b61020081016116ca6101c0830182610ee1565b6116e160c083015160206004013560043584610f58565b6116f860e083015160206044013560443584610f58565b61171061010083015160206084013560843584610f58565b6117616101208301517f0a40874c1321b37f96c4074345f4564533c25761fcffe14d0cd151610fbb79dc7f0c4181a93f208cc806eb8bdc7a0141dac1e695b8e77b87247c5c60d0c48b41d284610f58565b6117b26101408301517f0862b7cad03363fdc0d69dbdb8693993c952025654a34b3d15ea4cfa54f0cbd57f076bc8be41909e2e26ac93d53a36bdb1e544c5ba06c50b9d1dbf7dfafa44ec9184610f58565b5050565b7f30644e72e131a029b85045b68181585d2833e84879b9709143e1f593f00000016101a08201517f30644e72e131a029b85045b68181585d2833e84879b9709143e1f593f000000103067f30644e72e131a029b85045b68181585d2833e84879b9709143e1f593f00000018060c08401516102443509820890507f30644e72e131a029b85045b68181585d2833e84879b9709143e1f593f00000018060e08401516102643509820890507f30644e72e131a029b85045b68181585d2833e84879b9709143e1f593f0000001806101008401516102843509820890507f30644e72e131a029b85045b68181585d2833e84879b9709143e1f593f0000001806101208401516102a43509820890507f30644e72e131a029b85045b68181585d2833e84879b9709143e1f593f0000001806101408401516102c43509820890507f30644e72e131a029b85045b68181585d2833e84879b9709143e1f593f0000001806101608401516102e435098208905061193681600260016102408601610fc3565b5050565b6000604051610240810160405261018081016101c0820161020083016119626101c484610f01565b61196e61020483610f01565b61197e6101608701518386610ffe565b6119888385610f13565b7f30644e72e131a029b85045b68181585d97816a916871ca8d3c208c16d87cfd4760208501517f30644e72e131a029b85045b68181585d97816a916871ca8d3c208c16d87cfd47030660208501527f1e09ed635a7b74113625cbf6e0e1dd90d19a3390f30683ded95def12b12cec6860408501527f14f4c5b1512650d4c1d2e171c2c0ec570f34b34b6747501d4602d8031ebeb53e60608501527f0e83dc52b4b19ba97a9ff67614e12969610c34eac0e75709ad1ebdb5c432082360808501527f14d85501bf861962803705b5e83e58b034a24f04f800dfc32a41c27529044ad260a0850152611a8060608701518460c08701610ffe565b7f30644e72e131a029b85045b68181585d2833e84879b9709143e1f593f00000016060870151610160880151097f30644e72e131a029b85045b68181585d2833e84879b9709143e1f593f00000017e6fab49b869ae62001deac878b2667bd31bf3e28e3a2d764aa49b8d9bbdd31082099050611afd818484610ffe565b611b0a8260c08701610f13565b611b1b610200880160c08701610f13565b7f30644e72e131a029b85045b68181585d97816a916871ca8d3c208c16d87cfd476020610240018801517f30644e72e131a029b85045b68181585d97816a916871ca8d3c208c16d87cfd470306602061024001880152611b82610240880160c08701610f13565b7f198e9393920d483a7260bfb731fb5d25f1aa493335a9e71297e485b7aef312c26101008601527f1800deef121f1e76426a00665e5c4479674322d4f75edadd46debd5cd992f6ed6101208601527f090689d0585ff075ec9e99ad690c3395bc4b313370b38ef355acdadcd122975b6101408601527f12c85ea5db8c6deb4aab71808dcb408fe3d1e7690c43d37b4ce6cc0166fa7daa6101608601526020856101808760086107d05a03fa855181169650505050505050919050565b6040516103608101604052611c51610206565b611c5b8382610250565b611c6481610a20565b611c6e8382610bd7565b611c7781610c8f565b611c8081611014565b611c89816116b7565b611c92816117b6565b611c9b8161193a565b61036082036040528060005260206000f35b600080fd5b600080fd5b600081905082602060180282011115611cd357611cd2611cb2565b5b92915050565b600081905082602060020282011115611cf557611cf4611cb2565b5b92915050565b6000806103408385031215611d1357611d12611cad565b5b6000611d2185828601611cb7565b925050610300611d3385828601611cd9565b9150509250929050565b60008115159050919050565b611d5281611d3d565b82525050565b6000602082019050611d6d6000830184611d49565b9291505056fea2646970667358221220d411945d75a8e7cd73651246352f7b6a1475b0b85774a4b1bdfb4a5eed38f43c64736f6c634300081c0033",
  "linkReferences": {},
  "deployedLinkReferences": {}
}