{
  "_format": "hh-sol-artifact-1",
  "contractName": "ProposalVerifier",
  "sourceName": "contracts/verifiers/ProposalVerifier.sol",
  "abi": [
    {
      "inputs": [
        {
          "internalType": "uint256[24]",
          "name": "_proof",
          "type": "uint256[24]"
        },
        {
          "internalType": "uint256[5]",
          "name": "_pubSignals",
          "type": "uint256[5]"
        }
      ],
      "name": "verifyProof",
      "outputs": [
        {
          "internalType": "bool",
          "name": "",
          "type": "bool"
        }
      ],
      "stateMutability": "view",
      "type": "function"
    }
  ],
  "bytecode": "0x6080604052348015600f57600080fd5b506120db8061001f6000396000f3fe608060405234801561001057600080fd5b506004361061002b5760003560e01c80634f6baab214610030575b600080fd5b61004361003e366004612060565b610057565b604051901515815260200160405180910390f35b6000611ff1565b600080600184846000805b821561008b575092938183058581029091039350909181830290039081610069565b505050600181111561009c57600080fd5b505060008112156100aa5783015b9392505050565b60405181602084028301815160208301925060005b82841015610109578185527f30644e72e131a029b85045b68181585d2833e84879b9709143e1f593f00000018451830991506020850194506020840193506100c6565b6101337f30644e72e131a029b85045b68181585d2833e84879b9709143e1f593f00000018361005e565b91506020850394506020840393508592505b828411156101cc577f30644e72e131a029b85045b68181585d2833e84879b9709143e1f593f00000018551830990507f30644e72e131a029b85045b68181585d2833e84879b9709143e1f593f0000001845183098185527fffffffffffffffffffffffffffffffffffffffffffffffffffffffffffffffe095860195909401939150610145565b5090915250505050565b7f30644e72e131a029b85045b68181585d2833e84879b9709143e1f593f00000018110610207576000805260206000f35b50565b610216610244356101d6565b610222610264356101d6565b61022e610284356101d6565b61023a6102a4356101d6565b6102466102c4356101d6565b6102526102e4356101d6565b565b604080517f08c3db1139da9eb0ff27b0535945c6e74e6b166b1f0387090b996a40badd4a5e81527f2e1c3201bf0ac94f1ef2bd5b30db638d628f4c21c282d26f4b0eab6f72b5b41860208083019182527f146d64eddfb3a0b48bf917a09a43a8ad806173cab16e9a03b269f23ccfb4b8758385019081527f07dc2a51593da02a776e216456bed469cfd328dc354cac25f61b6d22bc99478460608086019182527f1e2be8a89360426b78ab3e48d056962a1ca238d8f04d0ce4d67fc2fc3d91ce276080808801919091527f16f4e9d3b1f4ac99f2e6b1672f2fcac45d3bb3e6e389fbfc20a4064cf50e856960a08801527f2de448980b4ac636e33b6698dde5628105c62934bea09fe8ae18a0dc32c8c26a60c08801527f0b0b57770892024c4211fc96bf0e04f51dad9d2ce2ec15e953b4ee1033dbfa0960e08801527f12f0d11554f6f119a634f160de894507899a6d3c5631a18292d9d49072fb9ea36101008801527f1c0cef714b4cc5986307ae06f4d45a0c9922c37cba4eec9442b0f1da04a3ef0d6101208801527f1630a735c2998ef9722b0b497574fa9adde5879adcd6a35ddde3a3987f75641f6101408801527f0d4134fbb713bf7f862052e82f881f21241e1d755b34a12d95341bff6d34ef236101608801527f039313333694194557c78cb38133637f5da63e24b8aa2a84568d6b01874186496101808801527f25a8236e69a7380e2f8fcbf214706cb21a2f0dbcdfdc123eb9709458f1851ef66101a08801527f1e67ea85f8b78649413b35202ad1921ebadb7d5000ea3d0ac2455cfa9524cba06101c08801527f109bad7b4c9525dc1d422b3aace9770ba9f7a192bdca7dbe251233931428d1cc6101e08801528935610200880152898501356102208801528988013561024088015290890135610260870152888101356102808701526004356102a08701526024356102c08701526044356102e087015260643561030087015260843561032087015260a43561034087015261036086207f30644e72e131a029b85045b68181585d2833e84879b9709143e1f593f00000019081900689860181815295909520819006978901978852848752965190945260c43590915260e435905290822083900680855290929091908280096102c08501528181526101043560208201526020610104013560408201526101443560608201526020610144013560808201526101843560a08201526020610184013560c08201527f30644e72e131a029b85045b68181585d2833e84879b9709143e1f593f000000160e082200691508160608501528181526102443560208201526102643560408201526102843560608201526102a43560808201526102c43560a08201526102e43560c08201527f30644e72e131a029b85045b68181585d2833e84879b9709143e1f593f000000160e08220068060c08601527f30644e72e131a029b85045b68181585d2833e84879b9709143e1f593f000000183850960a08601527f30644e72e131a029b85045b68181585d2833e84879b9709143e1f593f000000183840992507f30644e72e131a029b85045b68181585d2833e84879b9709143e1f593f000000183840992507f30644e72e131a029b85045b68181585d2833e84879b9709143e1f593f000000183840992507f30644e72e131a029b85045b68181585d2833e84879b9709143e1f593f000000183840992507f30644e72e131a029b85045b68181585d2833e84879b9709143e1f593f000000183840992507f30644e72e131a029b85045b68181585d2833e84879b9709143e1f593f000000183840992507f30644e72e131a029b85045b68181585d2833e84879b9709143e1f593f000000183840992507f30644e72e131a029b85045b68181585d2833e84879b9709143e1f593f000000183840992507f30644e72e131a029b85045b68181585d2833e84879b9709143e1f593f000000183840992507f30644e72e131a029b85045b68181585d2833e84879b9709143e1f593f000000183840992507f30644e72e131a029b85045b68181585d2833e84879b9709143e1f593f000000183840992507f30644e72e131a029b85045b68181585d2833e84879b9709143e1f593f000000183840992507f30644e72e131a029b85045b68181585d2833e84879b9709143e1f593f000000183840992507f30644e72e131a029b85045b68181585d2833e84879b9709143e1f593f000000183840992508260808601527f30644e72e131a029b85045b68181585d2833e84879b9709143e1f593f0000001806001850301069250826102e0860152826103008601527f30644e72e131a029b85045b68181585d2833e84879b9709143e1f593f000000181820992508260e08601527f30644e72e131a029b85045b68181585d2833e84879b9709143e1f593f00000018184099250826101008601527f30644e72e131a029b85045b68181585d2833e84879b9709143e1f593f00000018184099250826101208601527f30644e72e131a029b85045b68181585d2833e84879b9709143e1f593f0000001818409610140860152506101c43581526101e4356020820152610204356040820152610224356060820152608090207f30644e72e131a029b85045b68181585d2833e84879b9709143e1f593f0000001900661016090930192909252505050565b60017f30644e72e131a029b85045b68181585d2833e84879b9709143e1f593f0000001807f30644e72e131a029b85045b68181585d2833e84879b9709143e1f593f0000001836060860151030106614000096103208301527f30644e72e131a029b85045b68181585d2833e84879b9709143e1f593f00000017f2d965651cdd9e4811f4e51b80ddca8a8b4a93ee17420aae6adaa01c2617c6e85820990507f30644e72e131a029b85045b68181585d2833e84879b9709143e1f593f0000001807f30644e72e131a029b85045b68181585d2833e84879b9709143e1f593f0000001836060860151030106614000096103408301527f30644e72e131a029b85045b68181585d2833e84879b9709143e1f593f00000017f2d965651cdd9e4811f4e51b80ddca8a8b4a93ee17420aae6adaa01c2617c6e85820990507f30644e72e131a029b85045b68181585d2833e84879b9709143e1f593f0000001807f30644e72e131a029b85045b68181585d2833e84879b9709143e1f593f0000001836060860151030106614000096103608301527f30644e72e131a029b85045b68181585d2833e84879b9709143e1f593f00000017f2d965651cdd9e4811f4e51b80ddca8a8b4a93ee17420aae6adaa01c2617c6e85820990507f30644e72e131a029b85045b68181585d2833e84879b9709143e1f593f0000001807f30644e72e131a029b85045b68181585d2833e84879b9709143e1f593f0000001836060860151030106614000096103808301527f30644e72e131a029b85045b68181585d2833e84879b9709143e1f593f00000017f2d965651cdd9e4811f4e51b80ddca8a8b4a93ee17420aae6adaa01c2617c6e85820990507f30644e72e131a029b85045b68181585d2833e84879b9709143e1f593f0000001807f30644e72e131a029b85045b68181585d2833e84879b9709143e1f593f0000001836060860151030106614000096103a0830152610cc4600661030084016100b1565b6102e0820151600191507f30644e72e131a029b85045b68181585d2833e84879b9709143e1f593f000000181610320850151096103208401527f30644e72e131a029b85045b68181585d2833e84879b9709143e1f593f00000017f2d965651cdd9e4811f4e51b80ddca8a8b4a93ee17420aae6adaa01c2617c6e85830991507f30644e72e131a029b85045b68181585d2833e84879b9709143e1f593f000000180826103408601510983096103408401527f30644e72e131a029b85045b68181585d2833e84879b9709143e1f593f00000017f2d965651cdd9e4811f4e51b80ddca8a8b4a93ee17420aae6adaa01c2617c6e85830991507f30644e72e131a029b85045b68181585d2833e84879b9709143e1f593f000000180826103608601510983096103608401527f30644e72e131a029b85045b68181585d2833e84879b9709143e1f593f00000017f2d965651cdd9e4811f4e51b80ddca8a8b4a93ee17420aae6adaa01c2617c6e85830991507f30644e72e131a029b85045b68181585d2833e84879b9709143e1f593f000000180826103808601510983096103808401527f30644e72e131a029b85045b68181585d2833e84879b9709143e1f593f00000017f2d965651cdd9e4811f4e51b80ddca8a8b4a93ee17420aae6adaa01c2617c6e85830991507f30644e72e131a029b85045b68181585d2833e84879b9709143e1f593f000000180826103a08601510983096103a0840152505050565b60007f30644e72e131a029b85045b68181585d2833e84879b9709143e1f593f0000001807f30644e72e131a029b85045b68181585d2833e84879b9709143e1f593f00000016000860135610320860151098303010690507f30644e72e131a029b85045b68181585d2833e84879b9709143e1f593f0000001807f30644e72e131a029b85045b68181585d2833e84879b9709143e1f593f00000016020860135610340860151098303010690507f30644e72e131a029b85045b68181585d2833e84879b9709143e1f593f0000001807f30644e72e131a029b85045b68181585d2833e84879b9709143e1f593f00000016040860135610360860151098303010690507f30644e72e131a029b85045b68181585d2833e84879b9709143e1f593f0000001807f30644e72e131a029b85045b68181585d2833e84879b9709143e1f593f00000016060860135610380860151098303010690507f30644e72e131a029b85045b68181585d2833e84879b9709143e1f593f0000001807f30644e72e131a029b85045b68181585d2833e84879b9709143e1f593f000000160808601356103a08601510983030106905080610180830152505050565b6101808101517f30644e72e131a029b85045b68181585d2833e84879b9709143e1f593f00000016102c0830151610320840151097f30644e72e131a029b85045b68181585d2833e84879b9709143e1f593f0000001806102a43560208601510961024435087f30644e72e131a029b85045b68181585d2833e84879b9709143e1f593f00000016040850151820890507f30644e72e131a029b85045b68181585d2833e84879b9709143e1f593f0000001806102c43560208701510961026435087f30644e72e131a029b85045b68181585d2833e84879b9709143e1f593f00000016040860151820890507f30644e72e131a029b85045b68181585d2833e84879b9709143e1f593f0000001604086015161028435087f30644e72e131a029b85045b68181585d2833e84879b9709143e1f593f0000001817f30644e72e131a029b85045b68181585d2833e84879b9709143e1f593f000000184860909925050507f30644e72e131a029b85045b68181585d2833e84879b9709143e1f593f00000016102e435820990507f30644e72e131a029b85045b68181585d2833e84879b9709143e1f593f00000016000850151820990507f30644e72e131a029b85045b68181585d2833e84879b9709143e1f593f000000180837f30644e72e131a029b85045b68181585d2833e84879b9709143e1f593f00000010306840892507f30644e72e131a029b85045b68181585d2833e84879b9709143e1f593f000000180827f30644e72e131a029b85045b68181585d2833e84879b9709143e1f593f00000010306840892505050806101a08301525050565b6040518151815260208201516020820152825160408201526020830151606082015260408260808360066107d05a03fa90508061132e576000805260206000f35b505050565b50505050565b600060405183815284602082015285604082015260408160608360076107d05a03fa91508161136c576000805260206000f35b825160408201526020830151606082015260408360808360066107d05a03fa9150508061139d576000805260206000f35b5050505050565b600060405183815284602082015285604082015260408360608360076107d05a03fa9150508061139d576000805260206000f35b61132e8360208401518451846113a4565b6101c081016040820151604051610100810160405261144d7f1c0cef714b4cc5986307ae06f4d45a0c9922c37cba4eec9442b0f1da04a3ef0d7f12f0d11554f6f119a634f160de894507899a6d3c5631a18292d9d49072fb9ea38590815260200152565b6114c27f30644e72e131a029b85045b68181585d2833e84879b9709143e1f593f00000016102643561024435097f2e1c3201bf0ac94f1ef2bd5b30db638d628f4c21c282d26f4b0eab6f72b5b4187f08c3db1139da9eb0ff27b0535945c6e74e6b166b1f0387090b996a40badd4a5e86611339565b611511610244357f07dc2a51593da02a776e216456bed469cfd328dc354cac25f61b6d22bc9947847f146d64eddfb3a0b48bf917a09a43a8ad806173cab16e9a03b269f23ccfb4b87586611339565b611560610264357f16f4e9d3b1f4ac99f2e6b1672f2fcac45d3bb3e6e389fbfc20a4064cf50e85697f1e2be8a89360426b78ab3e48d056962a1ca238d8f04d0ce4d67fc2fc3d91ce2786611339565b6115af610284357f0b0b57770892024c4211fc96bf0e04f51dad9d2ce2ec15e953b4ee1033dbfa097f2de448980b4ac636e33b6698dde5628105c62934bea09fe8ae18a0dc32c8c26a86611339565b60a08401517f30644e72e131a029b85045b68181585d2833e84879b9709143e1f593f0000001837f30644e72e131a029b85045b68181585d2833e84879b9709143e1f593f0000001836102443508087f30644e72e131a029b85045b68181585d2833e84879b9709143e1f593f0000001847f30644e72e131a029b85045b68181585d2833e84879b9709143e1f593f000000180600286096102643508087f30644e72e131a029b85045b68181585d2833e84879b9709143e1f593f0000001857f30644e72e131a029b85045b68181585d2833e84879b9709143e1f593f0000001806003870961028435080892507f30644e72e131a029b85045b68181585d2833e84879b9709143e1f593f000000160008801517f30644e72e131a029b85045b68181585d2833e84879b9709143e1f593f0000001857f30644e72e131a029b85045b68181585d2833e84879b9709143e1f593f000000185870909097f30644e72e131a029b85045b68181585d2833e84879b9709143e1f593f00000016102c08901516103208a01510960c43560c087015260e43560e08701526117a17f30644e72e131a029b85045b68181585d2833e84879b9709143e1f593f00000016101608b01517f30644e72e131a029b85045b68181585d2833e84879b9709143e1f593f00000018486080860c08801886113d8565b50507f30644e72e131a029b85045b68181585d2833e84879b9709143e1f593f0000001857f30644e72e131a029b85045b68181585d2833e84879b9709143e1f593f0000001806102a43560208c01510961024435080891507f30644e72e131a029b85045b68181585d2833e84879b9709143e1f593f0000001857f30644e72e131a029b85045b68181585d2833e84879b9709143e1f593f0000001806102c43560208c01510961026435080890507f30644e72e131a029b85045b68181585d2833e84879b9709143e1f593f00000016102e4357f30644e72e131a029b85045b68181585d2833e84879b9709143e1f593f000000160208a015160008b0151090992506119387f30644e72e131a029b85045b68181585d2833e84879b9709143e1f593f0000001847f30644e72e131a029b85045b68181585d2833e84879b9709143e1f593f0000001848609097f109bad7b4c9525dc1d422b3aace9770ba9f7a192bdca7dbe251233931428d1cc7f1e67ea85f8b78649413b35202ad1921ebadb7d5000ea3d0ac2455cfa9524cba0604088016113a4565b5050506101043560808201526101243560a08201526119696080850151602061014401356101443560808501611339565b60808401517f30644e72e131a029b85045b68181585d2833e84879b9709143e1f593f000000190800991506119a9826101a4356101843560808501611339565b6119c56102e085015160a08301516080840151608085016113a4565b7f30644e72e131a029b85045b68181585d97816a916871ca8d3c208c16d87cfd4760206040830101517f30644e72e131a029b85045b68181585d97816a916871ca8d3c208c16d87cfd47030660206040830101527f30644e72e131a029b85045b68181585d97816a916871ca8d3c208c16d87cfd4760a08201517f30644e72e131a029b85045b68181585d97816a916871ca8d3c208c16d87cfd47030660a0820152611a7181846112ed565b611a7e60408201846112ed565b61133360808201846112ed565b6101c081015161020082019081526101e082015161022083015260c0820151611aba9060243560043584611339565b60e0820151611acf9060643560443584611339565b610100820151611ae59060a43560843584611339565b611b366101208301517f0d4134fbb713bf7f862052e82f881f21241e1d755b34a12d95341bff6d34ef237f1630a735c2998ef9722b0b497574fa9adde5879adcd6a35ddde3a3987f75641f84611339565b611b876101408301517f25a8236e69a7380e2f8fcbf214706cb21a2f0dbcdfdc123eb9709458f1851ef67f039313333694194557c78cb38133637f5da63e24b8aa2a84568d6b018741864984611339565b5050565b7f30644e72e131a029b85045b68181585d2833e84879b9709143e1f593f00000016101a08201517f30644e72e131a029b85045b68181585d2833e84879b9709143e1f593f000000103067f30644e72e131a029b85045b68181585d2833e84879b9709143e1f593f00000018060c08401516102443509820890507f30644e72e131a029b85045b68181585d2833e84879b9709143e1f593f00000018060e08401516102643509820890507f30644e72e131a029b85045b68181585d2833e84879b9709143e1f593f0000001806101008401516102843509820890507f30644e72e131a029b85045b68181585d2833e84879b9709143e1f593f0000001806101208401516102a43509820890507f30644e72e131a029b85045b68181585d2833e84879b9709143e1f593f0000001806101408401516102c43509820890507f30644e72e131a029b85045b68181585d2833e84879b9709143e1f593f0000001806101608401516102e4350982089050611b87816002600161024086016113a4565b6000604051610240810160405261018081016101c082016102008301611d3d6101c48481358152602091820135910152565b610204358252610224356020830152611d5c61016087015183866113d8565b611d6683856112ed565b7f30644e72e131a029b85045b68181585d97816a916871ca8d3c208c16d87cfd4760208501517f30644e72e131a029b85045b68181585d97816a916871ca8d3c208c16d87cfd47030660208501527ef312d6d0c720abcff5d187ab4101fabe7cf74105e965e036332bd99d951a2f60408501527f1ae3f8e97f0a54bd6651f45e31bfa85f35c1e4fdd0270c63927603518438153c60608501527f26c88d57067bc9f3b57425609ac862ffc04e09931b1bdf9fd3c4efcbb188755a60808501527f127477b93d25c70c1196f697b825be97445cead1f1031037c9a5fcb1e2dec5cb60a0850152611e5d60608701518460c087016113d8565b7f30644e72e131a029b85045b68181585d2833e84879b9709143e1f593f000000160608701516101608801510992507f30644e72e131a029b85045b68181585d2833e84879b9709143e1f593f00000017f2d965651cdd9e4811f4e51b80ddca8a8b4a93ee17420aae6adaa01c2617c6e8584099250611edd8383836113d8565b611eea8160c086016112ed565b505050611efe610200840160c083016112ed565b610260830180517f30644e72e131a029b85045b68181585d97816a916871ca8d3c208c16d87cfd47908103069052611f3d610240840160c083016112ed565b7f198e9393920d483a7260bfb731fb5d25f1aa493335a9e71297e485b7aef312c26101008201527f1800deef121f1e76426a00665e5c4479674322d4f75edadd46debd5cd992f6ed6101208201527f090689d0585ff075ec9e99ad690c3395bc4b313370b38ef355acdadcd122975b6101408201527f12c85ea5db8c6deb4aab71808dcb408fe3d1e7690c43d37b4ce6cc0166fa7daa6101608201526020816101808360086107d05a03fa90511692915050565b6040516103c0810160405261200461020a565b61200e8382610254565b612017816109ed565b6120218382610ee2565b61202a81611099565b612033816113e9565b61203c81611a8b565b61204581611b8b565b61204e81611d0b565b6103c082036040528060005260206000f35b6000806103a0838503121561207457600080fd5b61030083018481111561208657600080fd5b839250846103a08501111561209a57600080fd5b80915050925092905056fea26469706673582212201acb6e59219ee58a9ad16564420082fe842cded1e9875e018b687a9ab708ffa564736f6c634300081c0033",
  "linkReferences": {},
  "deployedLinkReferences": {}
}