{
  "_format": "hh-sol-artifact-1",
  "contractName": "ProposalVerifier",
  "sourceName": "contracts/verifiers/ProposalVerifier.sol",
  "abi": [
    {
      "inputs": [
        {
          "internalType": "uint256[24]",
          "name": "_proof",
          "type": "uint256[24]"
        },
        {
          "internalType": "uint256[4]",
          "name": "_pubSignals",
          "type": "uint256[4]"
        }
      ],
      "name": "verifyProof",
      "outputs": [
        {
          "internalType": "bool",
          "name": "",
          "type": "bool"
        }
      ],
      "stateMutability": "view",
      "type": "function"
    }
  ],
  "bytecode": "0x6080604052348015600f57600080fd5b50611f688061001f6000396000f3fe608060405234801561001057600080fd5b506004361061002b5760003560e01c80636183f6b414610030575b600080fd5b61004361003e366004611eed565b610057565b604051901515815260200160405180910390f35b6000611e7e565b600080600184846000805b821561008b575092938183058581029091039350909181830290039081610069565b505050600181111561009c57600080fd5b505060008112156100aa5783015b9392505050565b60405181602084028301815160208301925060005b82841015610109578185527f30644e72e131a029b85045b68181585d2833e84879b9709143e1f593f00000018451830991506020850194506020840193506100c6565b6101337f30644e72e131a029b85045b68181585d2833e84879b9709143e1f593f00000018361005e565b91506020850394506020840393508592505b828411156101cc577f30644e72e131a029b85045b68181585d2833e84879b9709143e1f593f00000018551830990507f30644e72e131a029b85045b68181585d2833e84879b9709143e1f593f0000001845183098185527fffffffffffffffffffffffffffffffffffffffffffffffffffffffffffffffe095860195909401939150610145565b5090915250505050565b7f30644e72e131a029b85045b68181585d2833e84879b9709143e1f593f00000018110610207576000805260206000f35b50565b610216610244356101d6565b610222610264356101d6565b61022e610284356101d6565b61023a6102a4356101d6565b6102466102c4356101d6565b6102526102e4356101d6565b565b604080517f206bfb2ebe5232a4002d50d79af937d5f9e8a0b15e084e0b0d6a206629b42abd81527f1f4e4628718e8ff4c984bfd2e0b020339a6e24216e12a40aafb7f1cc1af16cab60208083019182527f096208709ac4ebadf603b291bdeef6d80519af5e3abcb9def9e0b21dfff292ee8385019081527f1d13e843598f23c9c0d87b348618bd824b8e28d31603226448455baa358a7b1b60608086019182527f2ceb6bc5b2556fef7d372ef4c0d3cc8dc9a9a62a6f78b3b28938011728434ce06080808801919091527f107ce5dc145b65b41220ebaa937c66a80cec19d8466ba47a8132e68d91b20fe460a08801527f0523f969ceff10acc60071206617283eb948e4f397164b848e95c2e6e6f1f11860c08801527f068953f056129d4fc66f6b407ae10eff14bd160c5032dd16e241080ca094c79560e08801527f0e2b77b6fec105cd875187714c1ba8f0883f25efc2f414898c1fb4361433b9466101008801527f031d07db8cff29072d1eea9b6fd0a1f33315e5d03c1144268a51a510f9f22bb76101208801527f14c1edd466fe7be7938891f42b9ddbbfca3607c73587f3b4e582e43bb5e8a9b06101408801527f0ec334c53f83baaf6b02318946f5cd7e18a181a9c104601ca4698244838eaa056101608801527f3052d82e24d9250e78afac5cf302c1116a3521f2c508e4cc0902d400d83791b76101808801527f1d5191095788cdb9c925d5402ada697a2d89973210bd9bda11e9df9ae8b6d05b6101a08801527f2d0c7d8101615b041f7b554203772e52b1849628a9c94bb90f709c8c907857b36101c08801527f27b48494663af6fe5086b37ece7e91023e059af79eb8a7315b3fe4a79478bce56101e088015289356102008801528985013561022088015289880135610240880152908901356102608701526004356102808701526024356102a08701526044356102c08701526064356102e087015260843561030087015260a43561032087015261034086207f30644e72e131a029b85045b68181585d2833e84879b9709143e1f593f00000019081900689860181815295909520819006978901978852848752965190945260c43590915260e435905290822083900680855290929091908280096102c08501528181526101043560208201526020610104013560408201526101443560608201526020610144013560808201526101843560a08201526020610184013560c08201527f30644e72e131a029b85045b68181585d2833e84879b9709143e1f593f000000160e082200691508160608501528181526102443560208201526102643560408201526102843560608201526102a43560808201526102c43560a08201526102e43560c08201527f30644e72e131a029b85045b68181585d2833e84879b9709143e1f593f000000160e08220068060c08601527f30644e72e131a029b85045b68181585d2833e84879b9709143e1f593f000000183850960a08601527f30644e72e131a029b85045b68181585d2833e84879b9709143e1f593f000000183840992507f30644e72e131a029b85045b68181585d2833e84879b9709143e1f593f000000183840992507f30644e72e131a029b85045b68181585d2833e84879b9709143e1f593f000000183840992507f30644e72e131a029b85045b68181585d2833e84879b9709143e1f593f000000183840992507f30644e72e131a029b85045b68181585d2833e84879b9709143e1f593f000000183840992507f30644e72e131a029b85045b68181585d2833e84879b9709143e1f593f000000183840992507f30644e72e131a029b85045b68181585d2833e84879b9709143e1f593f000000183840992507f30644e72e131a029b85045b68181585d2833e84879b9709143e1f593f000000183840992507f30644e72e131a029b85045b68181585d2833e84879b9709143e1f593f000000183840992507f30644e72e131a029b85045b68181585d2833e84879b9709143e1f593f000000183840992507f30644e72e131a029b85045b68181585d2833e84879b9709143e1f593f000000183840992507f30644e72e131a029b85045b68181585d2833e84879b9709143e1f593f000000183840992507f30644e72e131a029b85045b68181585d2833e84879b9709143e1f593f000000183840992507f30644e72e131a029b85045b68181585d2833e84879b9709143e1f593f000000183840992508260808601527f30644e72e131a029b85045b68181585d2833e84879b9709143e1f593f0000001806001850301069250826102e0860152826103008601527f30644e72e131a029b85045b68181585d2833e84879b9709143e1f593f000000181820992508260e08601527f30644e72e131a029b85045b68181585d2833e84879b9709143e1f593f00000018184099250826101008601527f30644e72e131a029b85045b68181585d2833e84879b9709143e1f593f00000018184099250826101208601527f30644e72e131a029b85045b68181585d2833e84879b9709143e1f593f0000001818409610140860152506101c43581526101e4356020820152610204356040820152610224356060820152608090207f30644e72e131a029b85045b68181585d2833e84879b9709143e1f593f0000001900661016090930192909252505050565b60017f30644e72e131a029b85045b68181585d2833e84879b9709143e1f593f0000001807f30644e72e131a029b85045b68181585d2833e84879b9709143e1f593f0000001836060860151030106614000096103208301527f30644e72e131a029b85045b68181585d2833e84879b9709143e1f593f00000017f2d965651cdd9e4811f4e51b80ddca8a8b4a93ee17420aae6adaa01c2617c6e85820990507f30644e72e131a029b85045b68181585d2833e84879b9709143e1f593f0000001807f30644e72e131a029b85045b68181585d2833e84879b9709143e1f593f0000001836060860151030106614000096103408301527f30644e72e131a029b85045b68181585d2833e84879b9709143e1f593f00000017f2d965651cdd9e4811f4e51b80ddca8a8b4a93ee17420aae6adaa01c2617c6e85820990507f30644e72e131a029b85045b68181585d2833e84879b9709143e1f593f0000001807f30644e72e131a029b85045b68181585d2833e84879b9709143e1f593f0000001836060860151030106614000096103608301527f30644e72e131a029b85045b68181585d2833e84879b9709143e1f593f00000017f2d965651cdd9e4811f4e51b80ddca8a8b4a93ee17420aae6adaa01c2617c6e85820990507f30644e72e131a029b85045b68181585d2833e84879b9709143e1f593f0000001807f30644e72e131a029b85045b68181585d2833e84879b9709143e1f593f000000183606086015103010661400009610380830152610c1e600561030084016100b1565b6102e0820151600191507f30644e72e131a029b85045b68181585d2833e84879b9709143e1f593f000000181610320850151096103208401527f30644e72e131a029b85045b68181585d2833e84879b9709143e1f593f00000017f2d965651cdd9e4811f4e51b80ddca8a8b4a93ee17420aae6adaa01c2617c6e85830991507f30644e72e131a029b85045b68181585d2833e84879b9709143e1f593f000000180826103408601510983096103408401527f30644e72e131a029b85045b68181585d2833e84879b9709143e1f593f00000017f2d965651cdd9e4811f4e51b80ddca8a8b4a93ee17420aae6adaa01c2617c6e85830991507f30644e72e131a029b85045b68181585d2833e84879b9709143e1f593f000000180826103608601510983096103608401527f30644e72e131a029b85045b68181585d2833e84879b9709143e1f593f00000017f2d965651cdd9e4811f4e51b80ddca8a8b4a93ee17420aae6adaa01c2617c6e85830991507f30644e72e131a029b85045b68181585d2833e84879b9709143e1f593f00000018082610380860151098309610380840152505050565b60007f30644e72e131a029b85045b68181585d2833e84879b9709143e1f593f0000001807f30644e72e131a029b85045b68181585d2833e84879b9709143e1f593f00000016000860135610320860151098303010690507f30644e72e131a029b85045b68181585d2833e84879b9709143e1f593f0000001807f30644e72e131a029b85045b68181585d2833e84879b9709143e1f593f00000016020860135610340860151098303010690507f30644e72e131a029b85045b68181585d2833e84879b9709143e1f593f0000001807f30644e72e131a029b85045b68181585d2833e84879b9709143e1f593f00000016040860135610360860151098303010690507f30644e72e131a029b85045b68181585d2833e84879b9709143e1f593f0000001807f30644e72e131a029b85045b68181585d2833e84879b9709143e1f593f000000160608601356103808601510983030106905080610180830152505050565b6101808101517f30644e72e131a029b85045b68181585d2833e84879b9709143e1f593f00000016102c0830151610320840151097f30644e72e131a029b85045b68181585d2833e84879b9709143e1f593f0000001806102a43560208601510961024435087f30644e72e131a029b85045b68181585d2833e84879b9709143e1f593f00000016040850151820890507f30644e72e131a029b85045b68181585d2833e84879b9709143e1f593f0000001806102c43560208701510961026435087f30644e72e131a029b85045b68181585d2833e84879b9709143e1f593f00000016040860151820890507f30644e72e131a029b85045b68181585d2833e84879b9709143e1f593f0000001604086015161028435087f30644e72e131a029b85045b68181585d2833e84879b9709143e1f593f0000001817f30644e72e131a029b85045b68181585d2833e84879b9709143e1f593f000000184860909925050507f30644e72e131a029b85045b68181585d2833e84879b9709143e1f593f00000016102e435820990507f30644e72e131a029b85045b68181585d2833e84879b9709143e1f593f00000016000850151820990507f30644e72e131a029b85045b68181585d2833e84879b9709143e1f593f000000180837f30644e72e131a029b85045b68181585d2833e84879b9709143e1f593f00000010306840892507f30644e72e131a029b85045b68181585d2833e84879b9709143e1f593f000000180827f30644e72e131a029b85045b68181585d2833e84879b9709143e1f593f00000010306840892505050806101a08301525050565b6040518151815260208201516020820152825160408201526020830151606082015260408260808360066107d05a03fa9050806111bb576000805260206000f35b505050565b50505050565b600060405183815284602082015285604082015260408160608360076107d05a03fa9150816111f9576000805260206000f35b825160408201526020830151606082015260408360808360066107d05a03fa9150508061122a576000805260206000f35b5050505050565b600060405183815284602082015285604082015260408360608360076107d05a03fa9150508061122a576000805260206000f35b6111bb836020840151845184611231565b6101c08101604082015160405161010081016040526112da7f031d07db8cff29072d1eea9b6fd0a1f33315e5d03c1144268a51a510f9f22bb77f0e2b77b6fec105cd875187714c1ba8f0883f25efc2f414898c1fb4361433b9468590815260200152565b61134f7f30644e72e131a029b85045b68181585d2833e84879b9709143e1f593f00000016102643561024435097f1f4e4628718e8ff4c984bfd2e0b020339a6e24216e12a40aafb7f1cc1af16cab7f206bfb2ebe5232a4002d50d79af937d5f9e8a0b15e084e0b0d6a206629b42abd866111c6565b61139e610244357f1d13e843598f23c9c0d87b348618bd824b8e28d31603226448455baa358a7b1b7f096208709ac4ebadf603b291bdeef6d80519af5e3abcb9def9e0b21dfff292ee866111c6565b6113ed610264357f107ce5dc145b65b41220ebaa937c66a80cec19d8466ba47a8132e68d91b20fe47f2ceb6bc5b2556fef7d372ef4c0d3cc8dc9a9a62a6f78b3b28938011728434ce0866111c6565b61143c610284357f068953f056129d4fc66f6b407ae10eff14bd160c5032dd16e241080ca094c7957f0523f969ceff10acc60071206617283eb948e4f397164b848e95c2e6e6f1f118866111c6565b60a08401517f30644e72e131a029b85045b68181585d2833e84879b9709143e1f593f0000001837f30644e72e131a029b85045b68181585d2833e84879b9709143e1f593f0000001836102443508087f30644e72e131a029b85045b68181585d2833e84879b9709143e1f593f0000001847f30644e72e131a029b85045b68181585d2833e84879b9709143e1f593f000000180600286096102643508087f30644e72e131a029b85045b68181585d2833e84879b9709143e1f593f0000001857f30644e72e131a029b85045b68181585d2833e84879b9709143e1f593f0000001806003870961028435080892507f30644e72e131a029b85045b68181585d2833e84879b9709143e1f593f000000160008801517f30644e72e131a029b85045b68181585d2833e84879b9709143e1f593f0000001857f30644e72e131a029b85045b68181585d2833e84879b9709143e1f593f000000185870909097f30644e72e131a029b85045b68181585d2833e84879b9709143e1f593f00000016102c08901516103208a01510960c43560c087015260e43560e087015261162e7f30644e72e131a029b85045b68181585d2833e84879b9709143e1f593f00000016101608b01517f30644e72e131a029b85045b68181585d2833e84879b9709143e1f593f00000018486080860c0880188611265565b50507f30644e72e131a029b85045b68181585d2833e84879b9709143e1f593f0000001857f30644e72e131a029b85045b68181585d2833e84879b9709143e1f593f0000001806102a43560208c01510961024435080891507f30644e72e131a029b85045b68181585d2833e84879b9709143e1f593f0000001857f30644e72e131a029b85045b68181585d2833e84879b9709143e1f593f0000001806102c43560208c01510961026435080890507f30644e72e131a029b85045b68181585d2833e84879b9709143e1f593f00000016102e4357f30644e72e131a029b85045b68181585d2833e84879b9709143e1f593f000000160208a015160008b0151090992506117c57f30644e72e131a029b85045b68181585d2833e84879b9709143e1f593f0000001847f30644e72e131a029b85045b68181585d2833e84879b9709143e1f593f0000001848609097f27b48494663af6fe5086b37ece7e91023e059af79eb8a7315b3fe4a79478bce57f2d0c7d8101615b041f7b554203772e52b1849628a9c94bb90f709c8c907857b360408801611231565b5050506101043560808201526101243560a08201526117f660808501516020610144013561014435608085016111c6565b60808401517f30644e72e131a029b85045b68181585d2833e84879b9709143e1f593f00000019080099150611836826101a43561018435608085016111c6565b6118526102e085015160a0830151608084015160808501611231565b7f30644e72e131a029b85045b68181585d97816a916871ca8d3c208c16d87cfd4760206040830101517f30644e72e131a029b85045b68181585d97816a916871ca8d3c208c16d87cfd47030660206040830101527f30644e72e131a029b85045b68181585d97816a916871ca8d3c208c16d87cfd4760a08201517f30644e72e131a029b85045b68181585d97816a916871ca8d3c208c16d87cfd47030660a08201526118fe818461117a565b61190b604082018461117a565b6111c0608082018461117a565b6101c081015161020082019081526101e082015161022083015260c082015161194790602435600435846111c6565b60e082015161195c90606435604435846111c6565b6101008201516119729060a435608435846111c6565b6119c36101208301517f0ec334c53f83baaf6b02318946f5cd7e18a181a9c104601ca4698244838eaa057f14c1edd466fe7be7938891f42b9ddbbfca3607c73587f3b4e582e43bb5e8a9b0846111c6565b611a146101408301517f1d5191095788cdb9c925d5402ada697a2d89973210bd9bda11e9df9ae8b6d05b7f3052d82e24d9250e78afac5cf302c1116a3521f2c508e4cc0902d400d83791b7846111c6565b5050565b7f30644e72e131a029b85045b68181585d2833e84879b9709143e1f593f00000016101a08201517f30644e72e131a029b85045b68181585d2833e84879b9709143e1f593f000000103067f30644e72e131a029b85045b68181585d2833e84879b9709143e1f593f00000018060c08401516102443509820890507f30644e72e131a029b85045b68181585d2833e84879b9709143e1f593f00000018060e08401516102643509820890507f30644e72e131a029b85045b68181585d2833e84879b9709143e1f593f0000001806101008401516102843509820890507f30644e72e131a029b85045b68181585d2833e84879b9709143e1f593f0000001806101208401516102a43509820890507f30644e72e131a029b85045b68181585d2833e84879b9709143e1f593f0000001806101408401516102c43509820890507f30644e72e131a029b85045b68181585d2833e84879b9709143e1f593f0000001806101608401516102e4350982089050611a1481600260016102408601611231565b6000604051610240810160405261018081016101c082016102008301611bca6101c48481358152602091820135910152565b610204358252610224356020830152611be96101608701518386611265565b611bf3838561117a565b7f30644e72e131a029b85045b68181585d97816a916871ca8d3c208c16d87cfd4760208501517f30644e72e131a029b85045b68181585d97816a916871ca8d3c208c16d87cfd47030660208501527ef312d6d0c720abcff5d187ab4101fabe7cf74105e965e036332bd99d951a2f60408501527f1ae3f8e97f0a54bd6651f45e31bfa85f35c1e4fdd0270c63927603518438153c60608501527f26c88d57067bc9f3b57425609ac862ffc04e09931b1bdf9fd3c4efcbb188755a60808501527f127477b93d25c70c1196f697b825be97445cead1f1031037c9a5fcb1e2dec5cb60a0850152611cea60608701518460c08701611265565b7f30644e72e131a029b85045b68181585d2833e84879b9709143e1f593f000000160608701516101608801510992507f30644e72e131a029b85045b68181585d2833e84879b9709143e1f593f00000017f2d965651cdd9e4811f4e51b80ddca8a8b4a93ee17420aae6adaa01c2617c6e8584099250611d6a838383611265565b611d778160c0860161117a565b505050611d8b610200840160c0830161117a565b610260830180517f30644e72e131a029b85045b68181585d97816a916871ca8d3c208c16d87cfd47908103069052611dca610240840160c0830161117a565b7f198e9393920d483a7260bfb731fb5d25f1aa493335a9e71297e485b7aef312c26101008201527f1800deef121f1e76426a00665e5c4479674322d4f75edadd46debd5cd992f6ed6101208201527f090689d0585ff075ec9e99ad690c3395bc4b313370b38ef355acdadcd122975b6101408201527f12c85ea5db8c6deb4aab71808dcb408fe3d1e7690c43d37b4ce6cc0166fa7daa6101608201526020816101808360086107d05a03fa90511692915050565b6040516103a08101604052611e9161020a565b611e9b8382610254565b611ea4816109e3565b611eae8382610dc4565b611eb781610f26565b611ec081611276565b611ec981611918565b611ed281611a18565b611edb81611b98565b6103a082036040528060005260206000f35b6000806103808385031215611f0157600080fd5b610300830184811115611f1357600080fd5b8392508461038085011115611f2757600080fd5b80915050925092905056fea2646970667358221220c2a911dcb89361f57e16f735cf1cb0267d3e3f63f5f2f14bc27ff5772bc07e9b64736f6c634300081c0033",
  "linkReferences": {},
  "deployedLinkReferences": {}
}