{
  "_format": "hh-sol-artifact-1",
  "contractName": "ProposalClaimVerifier",
  "sourceName": "contracts/verifiers/ProposalClaimVerifier.sol",
  "abi": [
    {
      "inputs": [
        {
          "internalType": "uint256[24]",
          "name": "_proof",
          "type": "uint256[24]"
        },
        {
          "internalType": "uint256[3]",
          "name": "_pubSignals",
          "type": "uint256[3]"
        }
      ],
      "name": "verifyProof",
      "outputs": [
        {
          "internalType": "bool",
          "name": "",
          "type": "bool"
        }
      ],
      "stateMutability": "view",
      "type": "function"
    }
  ],
  "bytecode": "0x6080604052348015600f57600080fd5b50611d5c8061001f6000396000f3fe608060405234801561001057600080fd5b506004361061002b5760003560e01c80631d5803fe14610030575b600080fd5b61004361003e366004611ce1565b610057565b604051901515815260200160405180910390f35b6000611c72565b600080600184846000805b821561008b575092938183058581029091039350909181830290039081610069565b505050600181111561009c57600080fd5b505060008112156100aa5783015b9392505050565b60405181602084028301815160208301925060005b82841015610109578185527f30644e72e131a029b85045b68181585d2833e84879b9709143e1f593f00000018451830991506020850194506020840193506100c6565b6101337f30644e72e131a029b85045b68181585d2833e84879b9709143e1f593f00000018361005e565b91506020850394506020840393508592505b828411156101cc577f30644e72e131a029b85045b68181585d2833e84879b9709143e1f593f00000018551830990507f30644e72e131a029b85045b68181585d2833e84879b9709143e1f593f0000001845183098185527fffffffffffffffffffffffffffffffffffffffffffffffffffffffffffffffe095860195909401939150610145565b5090915250505050565b7f30644e72e131a029b85045b68181585d2833e84879b9709143e1f593f00000018110610207576000805260206000f35b50565b610216610244356101d6565b610222610264356101d6565b61022e610284356101d6565b61023a6102a4356101d6565b6102466102c4356101d6565b6102526102e4356101d6565b565b604080517f0eb7c74158546b0d159a41c449cb23de0979a87ee44d95bdd97aea064e4362eb81527f21b644a001139548333a1bc548fc4b525e4e3172dfb9a20302259318673b440e60208083019182527f05b89502029db8fd9f471839c3c77783d794f7b0ab62d5258e3a5c8996bf27f48385019081527f1af2a0a19400bdc9b48dbfc06c40a03f6e428888e3d26a5a500469bb47972930606085019081527f034b9a8ce4b97fb813a933590c4cf7af59b49330008fa093b085836e0371d0436080808701919091527f24230f7e2c570dee08c6226574e4dcd00aa36c7a5d5c562b6a559e83a78030ea60a08701527f187b515a4352928bc4001720e4424c8a3c37f066bf5bcd34dac225d75baaa15560c08701527f278a8c9d0377c429d556701f55a7ad9655495a163d8cc18a91dbac72e9a10d5e60e08701527f1bd9c2e318310ffccfc74b8a3277d1e7ef663dff3283e545e70d429eef0ed8426101008701527f24784c9448dfad06e58b998c531240ac98320af7fdc375bdffbc53d88d0209d06101208701527f10edbaa72985a8fb7818cb0600e6ff92056a45ad271c8cd841e7dca97a6b64586101408701527f26e153a4a90bbace23ac5a562ebe8aad94d964b6d20137e3e08f6afe978c21fa6101608701527f015f54eed1a286f058d0ea71e99878ddd4ea92a1f578c43b1155293dcf507bb66101808701527f2d383e2259ce4b92c1ad1222ca1e0893e170ec7dbe04cadec6c32dfca4fa6b896101a08701527f04dd03c2b9f1d0e73c998cfb291be2349656dacde0a5fdb93e45ea3de2b28e426101c08701527f1d934f6a20eb27a032bdd245049295cc6bef8a439a834882950d295d06f1d4416101e0870152883561020087015288840135610220870152888701356102408701526004356102608701526024356102808701526044356102a08701526064356102c08701526084356102e087015260a43561030087015261032086207f30644e72e131a029b85045b68181585d2833e84879b9709143e1f593f00000019081900689860181815295909520819006978901978852848752965190945260c43590915260e435905290822083900680855290929091908280096102c08501528181526101043560208201526020610104013560408201526101443560608201526020610144013560808201526101843560a08201526020610184013560c08201527f30644e72e131a029b85045b68181585d2833e84879b9709143e1f593f000000160e082200691508160608501528181526102443560208201526102643560408201526102843560608201526102a43560808201526102c43560a08201526102e43560c08201527f30644e72e131a029b85045b68181585d2833e84879b9709143e1f593f000000160e08220068060c08601527f30644e72e131a029b85045b68181585d2833e84879b9709143e1f593f000000183850960a08601527f30644e72e131a029b85045b68181585d2833e84879b9709143e1f593f000000183840992507f30644e72e131a029b85045b68181585d2833e84879b9709143e1f593f000000183840992507f30644e72e131a029b85045b68181585d2833e84879b9709143e1f593f000000183840992507f30644e72e131a029b85045b68181585d2833e84879b9709143e1f593f000000183840992507f30644e72e131a029b85045b68181585d2833e84879b9709143e1f593f000000183840992507f30644e72e131a029b85045b68181585d2833e84879b9709143e1f593f000000183840992507f30644e72e131a029b85045b68181585d2833e84879b9709143e1f593f000000183840992507f30644e72e131a029b85045b68181585d2833e84879b9709143e1f593f000000183840992507f30644e72e131a029b85045b68181585d2833e84879b9709143e1f593f000000183840992507f30644e72e131a029b85045b68181585d2833e84879b9709143e1f593f000000183840992508260808601527f30644e72e131a029b85045b68181585d2833e84879b9709143e1f593f0000001806001850301069250826102e0860152826103008601527f30644e72e131a029b85045b68181585d2833e84879b9709143e1f593f000000181820992508260e08601527f30644e72e131a029b85045b68181585d2833e84879b9709143e1f593f00000018184099250826101008601527f30644e72e131a029b85045b68181585d2833e84879b9709143e1f593f00000018184099250826101208601527f30644e72e131a029b85045b68181585d2833e84879b9709143e1f593f0000001818409610140860152506101c43581526101e4356020820152610204356040820152610224356060820152608090207f30644e72e131a029b85045b68181585d2833e84879b9709143e1f593f0000001900661016090930192909252505050565b60017f30644e72e131a029b85045b68181585d2833e84879b9709143e1f593f0000001807f30644e72e131a029b85045b68181585d2833e84879b9709143e1f593f0000001836060860151030106610400096103208301527f30644e72e131a029b85045b68181585d2833e84879b9709143e1f593f00000017f06fd19c17017a420ebbebc2bb08771e339ba79c0a8d2d7ab11f995e1bc2e5912820990507f30644e72e131a029b85045b68181585d2833e84879b9709143e1f593f0000001807f30644e72e131a029b85045b68181585d2833e84879b9709143e1f593f0000001836060860151030106610400096103408301527f30644e72e131a029b85045b68181585d2833e84879b9709143e1f593f00000017f06fd19c17017a420ebbebc2bb08771e339ba79c0a8d2d7ab11f995e1bc2e5912820990507f30644e72e131a029b85045b68181585d2833e84879b9709143e1f593f0000001807f30644e72e131a029b85045b68181585d2833e84879b9709143e1f593f000000183606086015103010661040009610360830152610adf600461030084016100b1565b6102e0820151600191507f30644e72e131a029b85045b68181585d2833e84879b9709143e1f593f000000181610320850151096103208401527f30644e72e131a029b85045b68181585d2833e84879b9709143e1f593f00000017f06fd19c17017a420ebbebc2bb08771e339ba79c0a8d2d7ab11f995e1bc2e5912830991507f30644e72e131a029b85045b68181585d2833e84879b9709143e1f593f000000180826103408601510983096103408401527f30644e72e131a029b85045b68181585d2833e84879b9709143e1f593f00000017f06fd19c17017a420ebbebc2bb08771e339ba79c0a8d2d7ab11f995e1bc2e5912830991507f30644e72e131a029b85045b68181585d2833e84879b9709143e1f593f00000018082610360860151098309610360840152505050565b60007f30644e72e131a029b85045b68181585d2833e84879b9709143e1f593f0000001807f30644e72e131a029b85045b68181585d2833e84879b9709143e1f593f00000016000860135610320860151098303010690507f30644e72e131a029b85045b68181585d2833e84879b9709143e1f593f0000001807f30644e72e131a029b85045b68181585d2833e84879b9709143e1f593f00000016020860135610340860151098303010690507f30644e72e131a029b85045b68181585d2833e84879b9709143e1f593f0000001807f30644e72e131a029b85045b68181585d2833e84879b9709143e1f593f000000160408601356103608601510983030106905080610180830152505050565b6101808101517f30644e72e131a029b85045b68181585d2833e84879b9709143e1f593f00000016102c0830151610320840151097f30644e72e131a029b85045b68181585d2833e84879b9709143e1f593f0000001806102a43560208601510961024435087f30644e72e131a029b85045b68181585d2833e84879b9709143e1f593f00000016040850151820890507f30644e72e131a029b85045b68181585d2833e84879b9709143e1f593f0000001806102c43560208701510961026435087f30644e72e131a029b85045b68181585d2833e84879b9709143e1f593f00000016040860151820890507f30644e72e131a029b85045b68181585d2833e84879b9709143e1f593f0000001604086015161028435087f30644e72e131a029b85045b68181585d2833e84879b9709143e1f593f0000001817f30644e72e131a029b85045b68181585d2833e84879b9709143e1f593f000000184860909925050507f30644e72e131a029b85045b68181585d2833e84879b9709143e1f593f00000016102e435820990507f30644e72e131a029b85045b68181585d2833e84879b9709143e1f593f00000016000850151820990507f30644e72e131a029b85045b68181585d2833e84879b9709143e1f593f000000180837f30644e72e131a029b85045b68181585d2833e84879b9709143e1f593f00000010306840892507f30644e72e131a029b85045b68181585d2833e84879b9709143e1f593f000000180827f30644e72e131a029b85045b68181585d2833e84879b9709143e1f593f00000010306840892505050806101a08301525050565b6040518151815260208201516020820152825160408201526020830151606082015260408260808360066107d05a03fa905080610faf576000805260206000f35b505050565b50505050565b600060405183815284602082015285604082015260408160608360076107d05a03fa915081610fed576000805260206000f35b825160408201526020830151606082015260408360808360066107d05a03fa9150508061101e576000805260206000f35b5050505050565b600060405183815284602082015285604082015260408360608360076107d05a03fa9150508061101e576000805260206000f35b610faf836020840151845184611025565b6101c08101604082015160405161010081016040526110ce7f24784c9448dfad06e58b998c531240ac98320af7fdc375bdffbc53d88d0209d07f1bd9c2e318310ffccfc74b8a3277d1e7ef663dff3283e545e70d429eef0ed8428590815260200152565b6111437f30644e72e131a029b85045b68181585d2833e84879b9709143e1f593f00000016102643561024435097f21b644a001139548333a1bc548fc4b525e4e3172dfb9a20302259318673b440e7f0eb7c74158546b0d159a41c449cb23de0979a87ee44d95bdd97aea064e4362eb86610fba565b611192610244357f1af2a0a19400bdc9b48dbfc06c40a03f6e428888e3d26a5a500469bb479729307f05b89502029db8fd9f471839c3c77783d794f7b0ab62d5258e3a5c8996bf27f486610fba565b6111e1610264357f24230f7e2c570dee08c6226574e4dcd00aa36c7a5d5c562b6a559e83a78030ea7f034b9a8ce4b97fb813a933590c4cf7af59b49330008fa093b085836e0371d04386610fba565b611230610284357f278a8c9d0377c429d556701f55a7ad9655495a163d8cc18a91dbac72e9a10d5e7f187b515a4352928bc4001720e4424c8a3c37f066bf5bcd34dac225d75baaa15586610fba565b60a08401517f30644e72e131a029b85045b68181585d2833e84879b9709143e1f593f0000001837f30644e72e131a029b85045b68181585d2833e84879b9709143e1f593f0000001836102443508087f30644e72e131a029b85045b68181585d2833e84879b9709143e1f593f0000001847f30644e72e131a029b85045b68181585d2833e84879b9709143e1f593f000000180600286096102643508087f30644e72e131a029b85045b68181585d2833e84879b9709143e1f593f0000001857f30644e72e131a029b85045b68181585d2833e84879b9709143e1f593f0000001806003870961028435080892507f30644e72e131a029b85045b68181585d2833e84879b9709143e1f593f000000160008801517f30644e72e131a029b85045b68181585d2833e84879b9709143e1f593f0000001857f30644e72e131a029b85045b68181585d2833e84879b9709143e1f593f000000185870909097f30644e72e131a029b85045b68181585d2833e84879b9709143e1f593f00000016102c08901516103208a01510960c43560c087015260e43560e08701526114227f30644e72e131a029b85045b68181585d2833e84879b9709143e1f593f00000016101608b01517f30644e72e131a029b85045b68181585d2833e84879b9709143e1f593f00000018486080860c0880188611059565b50507f30644e72e131a029b85045b68181585d2833e84879b9709143e1f593f0000001857f30644e72e131a029b85045b68181585d2833e84879b9709143e1f593f0000001806102a43560208c01510961024435080891507f30644e72e131a029b85045b68181585d2833e84879b9709143e1f593f0000001857f30644e72e131a029b85045b68181585d2833e84879b9709143e1f593f0000001806102c43560208c01510961026435080890507f30644e72e131a029b85045b68181585d2833e84879b9709143e1f593f00000016102e4357f30644e72e131a029b85045b68181585d2833e84879b9709143e1f593f000000160208a015160008b0151090992506115b97f30644e72e131a029b85045b68181585d2833e84879b9709143e1f593f0000001847f30644e72e131a029b85045b68181585d2833e84879b9709143e1f593f0000001848609097f1d934f6a20eb27a032bdd245049295cc6bef8a439a834882950d295d06f1d4417f04dd03c2b9f1d0e73c998cfb291be2349656dacde0a5fdb93e45ea3de2b28e4260408801611025565b5050506101043560808201526101243560a08201526115ea6080850151602061014401356101443560808501610fba565b60808401517f30644e72e131a029b85045b68181585d2833e84879b9709143e1f593f0000001908009915061162a826101a4356101843560808501610fba565b6116466102e085015160a0830151608084015160808501611025565b7f30644e72e131a029b85045b68181585d97816a916871ca8d3c208c16d87cfd4760206040830101517f30644e72e131a029b85045b68181585d97816a916871ca8d3c208c16d87cfd47030660206040830101527f30644e72e131a029b85045b68181585d97816a916871ca8d3c208c16d87cfd4760a08201517f30644e72e131a029b85045b68181585d97816a916871ca8d3c208c16d87cfd47030660a08201526116f28184610f6e565b6116ff6040820184610f6e565b610fb46080820184610f6e565b6101c081015161020082019081526101e082015161022083015260c082015161173b9060243560043584610fba565b60e08201516117509060643560443584610fba565b6101008201516117669060a43560843584610fba565b6117b76101208301517f26e153a4a90bbace23ac5a562ebe8aad94d964b6d20137e3e08f6afe978c21fa7f10edbaa72985a8fb7818cb0600e6ff92056a45ad271c8cd841e7dca97a6b645884610fba565b6118086101408301517f2d383e2259ce4b92c1ad1222ca1e0893e170ec7dbe04cadec6c32dfca4fa6b897f015f54eed1a286f058d0ea71e99878ddd4ea92a1f578c43b1155293dcf507bb684610fba565b5050565b7f30644e72e131a029b85045b68181585d2833e84879b9709143e1f593f00000016101a08201517f30644e72e131a029b85045b68181585d2833e84879b9709143e1f593f000000103067f30644e72e131a029b85045b68181585d2833e84879b9709143e1f593f00000018060c08401516102443509820890507f30644e72e131a029b85045b68181585d2833e84879b9709143e1f593f00000018060e08401516102643509820890507f30644e72e131a029b85045b68181585d2833e84879b9709143e1f593f0000001806101008401516102843509820890507f30644e72e131a029b85045b68181585d2833e84879b9709143e1f593f0000001806101208401516102a43509820890507f30644e72e131a029b85045b68181585d2833e84879b9709143e1f593f0000001806101408401516102c43509820890507f30644e72e131a029b85045b68181585d2833e84879b9709143e1f593f0000001806101608401516102e435098208905061180881600260016102408601611025565b6000604051610240810160405261018081016101c0820161020083016119be6101c48481358152602091820135910152565b6102043582526102243560208301526119dd6101608701518386611059565b6119e78385610f6e565b7f30644e72e131a029b85045b68181585d97816a916871ca8d3c208c16d87cfd4760208501517f30644e72e131a029b85045b68181585d97816a916871ca8d3c208c16d87cfd47030660208501527ef312d6d0c720abcff5d187ab4101fabe7cf74105e965e036332bd99d951a2f60408501527f1ae3f8e97f0a54bd6651f45e31bfa85f35c1e4fdd0270c63927603518438153c60608501527f26c88d57067bc9f3b57425609ac862ffc04e09931b1bdf9fd3c4efcbb188755a60808501527f127477b93d25c70c1196f697b825be97445cead1f1031037c9a5fcb1e2dec5cb60a0850152611ade60608701518460c08701611059565b7f30644e72e131a029b85045b68181585d2833e84879b9709143e1f593f000000160608701516101608801510992507f30644e72e131a029b85045b68181585d2833e84879b9709143e1f593f00000017f06fd19c17017a420ebbebc2bb08771e339ba79c0a8d2d7ab11f995e1bc2e591284099250611b5e838383611059565b611b6b8160c08601610f6e565b505050611b7f610200840160c08301610f6e565b610260830180517f30644e72e131a029b85045b68181585d97816a916871ca8d3c208c16d87cfd47908103069052611bbe610240840160c08301610f6e565b7f198e9393920d483a7260bfb731fb5d25f1aa493335a9e71297e485b7aef312c26101008201527f1800deef121f1e76426a00665e5c4479674322d4f75edadd46debd5cd992f6ed6101208201527f090689d0585ff075ec9e99ad690c3395bc4b313370b38ef355acdadcd122975b6101408201527f12c85ea5db8c6deb4aab71808dcb408fe3d1e7690c43d37b4ce6cc0166fa7daa6101608201526020816101808360086107d05a03fa90511692915050565b6040516103808101604052611c8561020a565b611c8f8382610254565b611c9881610940565b611ca28382610c0d565b611cab81610d1a565b611cb48161106a565b611cbd8161170c565b611cc68161180c565b611ccf8161198c565b61038082036040528060005260206000f35b6000806103608385031215611cf557600080fd5b610300830184811115611d0757600080fd5b8392508461036085011115611d1b57600080fd5b80915050925092905056fea2646970667358221220ad121317bd4e686958536a84e2cc8695326d0f64529234a9791b7655f36ae69f64736f6c634300081c0033",
  "linkReferences": {},
  "deployedLinkReferences": {}
}