{
  "contracts/verifiers/ProposalVerifier.sol": {
    "ProposalVerifier": {
      "abi": [
        {
          "inputs": [
            {
              "internalType": "uint256[24]",
              "name": "_proof",
              "type": "uint256[24]"
            },
            {
              "internalType": "uint256[4]",
              "name": "_pubSignals",
              "type": "uint256[4]"
            }
          ],
          "name": "verifyProof",
          "outputs": [
            {
              "internalType": "bool",
              "name": "",
              "type": "bool"
            }
          ],
          "stateMutability": "view",
          "type": "function"
        }
      ],
      "evm": {
        "bytecode": {
          "linkReferences": {},
          "object": "6080604052348015600f57600080fd5b50611f688061001f6000396000f3fe608060405234801561001057600080fd5b506004361061002b5760003560e01c80636183f6b414610030575b600080fd5b61004361003e366004611eed565b610057565b604051901515815260200160405180910390f35b6000611e7e565b600080600184846000805b821561008b575092938183058581029091039350909181830290039081610069565b505050600181111561009c57600080fd5b505060008112156100aa5783015b9392505050565b60405181602084028301815160208301925060005b82841015610109578185527f30644e72e131a029b85045b68181585d2833e84879b9709143e1f593f00000018451830991506020850194506020840193506100c6565b6101337f30644e72e131a029b85045b68181585d2833e84879b9709143e1f593f00000018361005e565b91506020850394506020840393508592505b828411156101cc577f30644e72e131a029b85045b68181585d2833e84879b9709143e1f593f00000018551830990507f30644e72e131a029b85045b68181585d2833e84879b9709143e1f593f0000001845183098185527fffffffffffffffffffffffffffffffffffffffffffffffffffffffffffffffe095860195909401939150610145565b5090915250505050565b7f30644e72e131a029b85045b68181585d2833e84879b9709143e1f593f00000018110610207576000805260206000f35b50565b610216610244356101d6565b610222610264356101d6565b61022e610284356101d6565b61023a6102a4356101d6565b6102466102c4356101d6565b6102526102e4356101d6565b565b604080517f206bfb2ebe5232a4002d50d79af937d5f9e8a0b15e084e0b0d6a206629b42abd81527f1f4e4628718e8ff4c984bfd2e0b020339a6e24216e12a40aafb7f1cc1af16cab60208083019182527f096208709ac4ebadf603b291bdeef6d80519af5e3abcb9def9e0b21dfff292ee8385019081527f1d13e843598f23c9c0d87b348618bd824b8e28d31603226448455baa358a7b1b60608086019182527f2ceb6bc5b2556fef7d372ef4c0d3cc8dc9a9a62a6f78b3b28938011728434ce06080808801919091527f107ce5dc145b65b41220ebaa937c66a80cec19d8466ba47a8132e68d91b20fe460a08801527f0523f969ceff10acc60071206617283eb948e4f397164b848e95c2e6e6f1f11860c08801527f068953f056129d4fc66f6b407ae10eff14bd160c5032dd16e241080ca094c79560e08801527f0e2b77b6fec105cd875187714c1ba8f0883f25efc2f414898c1fb4361433b9466101008801527f031d07db8cff29072d1eea9b6fd0a1f33315e5d03c1144268a51a510f9f22bb76101208801527f14c1edd466fe7be7938891f42b9ddbbfca3607c73587f3b4e582e43bb5e8a9b06101408801527f0ec334c53f83baaf6b02318946f5cd7e18a181a9c104601ca4698244838eaa056101608801527f3052d82e24d9250e78afac5cf302c1116a3521f2c508e4cc0902d400d83791b76101808801527f1d5191095788cdb9c925d5402ada697a2d89973210bd9bda11e9df9ae8b6d05b6101a08801527f2d0c7d8101615b041f7b554203772e52b1849628a9c94bb90f709c8c907857b36101c08801527f27b48494663af6fe5086b37ece7e91023e059af79eb8a7315b3fe4a79478bce56101e088015289356102008801528985013561022088015289880135610240880152908901356102608701526004356102808701526024356102a08701526044356102c08701526064356102e087015260843561030087015260a43561032087015261034086207f30644e72e131a029b85045b68181585d2833e84879b9709143e1f593f00000019081900689860181815295909520819006978901978852848752965190945260c43590915260e435905290822083900680855290929091908280096102c08501528181526101043560208201526020610104013560408201526101443560608201526020610144013560808201526101843560a08201526020610184013560c08201527f30644e72e131a029b85045b68181585d2833e84879b9709143e1f593f000000160e082200691508160608501528181526102443560208201526102643560408201526102843560608201526102a43560808201526102c43560a08201526102e43560c08201527f30644e72e131a029b85045b68181585d2833e84879b9709143e1f593f000000160e08220068060c08601527f30644e72e131a029b85045b68181585d2833e84879b9709143e1f593f000000183850960a08601527f30644e72e131a029b85045b68181585d2833e84879b9709143e1f593f000000183840992507f30644e72e131a029b85045b68181585d2833e84879b9709143e1f593f000000183840992507f30644e72e131a029b85045b68181585d2833e84879b9709143e1f593f000000183840992507f30644e72e131a029b85045b68181585d2833e84879b9709143e1f593f000000183840992507f30644e72e131a029b85045b68181585d2833e84879b9709143e1f593f000000183840992507f30644e72e131a029b85045b68181585d2833e84879b9709143e1f593f000000183840992507f30644e72e131a029b85045b68181585d2833e84879b9709143e1f593f000000183840992507f30644e72e131a029b85045b68181585d2833e84879b9709143e1f593f000000183840992507f30644e72e131a029b85045b68181585d2833e84879b9709143e1f593f000000183840992507f30644e72e131a029b85045b68181585d2833e84879b9709143e1f593f000000183840992507f30644e72e131a029b85045b68181585d2833e84879b9709143e1f593f000000183840992507f30644e72e131a029b85045b68181585d2833e84879b9709143e1f593f000000183840992507f30644e72e131a029b85045b68181585d2833e84879b9709143e1f593f000000183840992507f30644e72e131a029b85045b68181585d2833e84879b9709143e1f593f000000183840992508260808601527f30644e72e131a029b85045b68181585d2833e84879b9709143e1f593f0000001806001850301069250826102e0860152826103008601527f30644e72e131a029b85045b68181585d2833e84879b9709143e1f593f000000181820992508260e08601527f30644e72e131a029b85045b68181585d2833e84879b9709143e1f593f00000018184099250826101008601527f30644e72e131a029b85045b68181585d2833e84879b9709143e1f593f00000018184099250826101208601527f30644e72e131a029b85045b68181585d2833e84879b9709143e1f593f0000001818409610140860152506101c43581526101e4356020820152610204356040820152610224356060820152608090207f30644e72e131a029b85045b68181585d2833e84879b9709143e1f593f0000001900661016090930192909252505050565b60017f30644e72e131a029b85045b68181585d2833e84879b9709143e1f593f0000001807f30644e72e131a029b85045b68181585d2833e84879b9709143e1f593f0000001836060860151030106614000096103208301527f30644e72e131a029b85045b68181585d2833e84879b9709143e1f593f00000017f2d965651cdd9e4811f4e51b80ddca8a8b4a93ee17420aae6adaa01c2617c6e85820990507f30644e72e131a029b85045b68181585d2833e84879b9709143e1f593f0000001807f30644e72e131a029b85045b68181585d2833e84879b9709143e1f593f0000001836060860151030106614000096103408301527f30644e72e131a029b85045b68181585d2833e84879b9709143e1f593f00000017f2d965651cdd9e4811f4e51b80ddca8a8b4a93ee17420aae6adaa01c2617c6e85820990507f30644e72e131a029b85045b68181585d2833e84879b9709143e1f593f0000001807f30644e72e131a029b85045b68181585d2833e84879b9709143e1f593f0000001836060860151030106614000096103608301527f30644e72e131a029b85045b68181585d2833e84879b9709143e1f593f00000017f2d965651cdd9e4811f4e51b80ddca8a8b4a93ee17420aae6adaa01c2617c6e85820990507f30644e72e131a029b85045b68181585d2833e84879b9709143e1f593f0000001807f30644e72e131a029b85045b68181585d2833e84879b9709143e1f593f000000183606086015103010661400009610380830152610c1e600561030084016100b1565b6102e0820151600191507f30644e72e131a029b85045b68181585d2833e84879b9709143e1f593f000000181610320850151096103208401527f30644e72e131a029b85045b68181585d2833e84879b9709143e1f593f00000017f2d965651cdd9e4811f4e51b80ddca8a8b4a93ee17420aae6adaa01c2617c6e85830991507f30644e72e131a029b85045b68181585d2833e84879b9709143e1f593f000000180826103408601510983096103408401527f30644e72e131a029b85045b68181585d2833e84879b9709143e1f593f00000017f2d965651cdd9e4811f4e51b80ddca8a8b4a93ee17420aae6adaa01c2617c6e85830991507f30644e72e131a029b85045b68181585d2833e84879b9709143e1f593f000000180826103608601510983096103608401527f30644e72e131a029b85045b68181585d2833e84879b9709143e1f593f00000017f2d965651cdd9e4811f4e51b80ddca8a8b4a93ee17420aae6adaa01c2617c6e85830991507f30644e72e131a029b85045b68181585d2833e84879b9709143e1f593f00000018082610380860151098309610380840152505050565b60007f30644e72e131a029b85045b68181585d2833e84879b9709143e1f593f0000001807f30644e72e131a029b85045b68181585d2833e84879b9709143e1f593f00000016000860135610320860151098303010690507f30644e72e131a029b85045b68181585d2833e84879b9709143e1f593f0000001807f30644e72e131a029b85045b68181585d2833e84879b9709143e1f593f00000016020860135610340860151098303010690507f30644e72e131a029b85045b68181585d2833e84879b9709143e1f593f0000001807f30644e72e131a029b85045b68181585d2833e84879b9709143e1f593f00000016040860135610360860151098303010690507f30644e72e131a029b85045b68181585d2833e84879b9709143e1f593f0000001807f30644e72e131a029b85045b68181585d2833e84879b9709143e1f593f000000160608601356103808601510983030106905080610180830152505050565b6101808101517f30644e72e131a029b85045b68181585d2833e84879b9709143e1f593f00000016102c0830151610320840151097f30644e72e131a029b85045b68181585d2833e84879b9709143e1f593f0000001806102a43560208601510961024435087f30644e72e131a029b85045b68181585d2833e84879b9709143e1f593f00000016040850151820890507f30644e72e131a029b85045b68181585d2833e84879b9709143e1f593f0000001806102c43560208701510961026435087f30644e72e131a029b85045b68181585d2833e84879b9709143e1f593f00000016040860151820890507f30644e72e131a029b85045b68181585d2833e84879b9709143e1f593f0000001604086015161028435087f30644e72e131a029b85045b68181585d2833e84879b9709143e1f593f0000001817f30644e72e131a029b85045b68181585d2833e84879b9709143e1f593f000000184860909925050507f30644e72e131a029b85045b68181585d2833e84879b9709143e1f593f00000016102e435820990507f30644e72e131a029b85045b68181585d2833e84879b9709143e1f593f00000016000850151820990507f30644e72e131a029b85045b68181585d2833e84879b9709143e1f593f000000180837f30644e72e131a029b85045b68181585d2833e84879b9709143e1f593f00000010306840892507f30644e72e131a029b85045b68181585d2833e84879b9709143e1f593f000000180827f30644e72e131a029b85045b68181585d2833e84879b9709143e1f593f00000010306840892505050806101a08301525050565b6040518151815260208201516020820152825160408201526020830151606082015260408260808360066107d05a03fa9050806111bb576000805260206000f35b505050565b50505050565b600060405183815284602082015285604082015260408160608360076107d05a03fa9150816111f9576000805260206000f35b825160408201526020830151606082015260408360808360066107d05a03fa9150508061122a576000805260206000f35b5050505050565b600060405183815284602082015285604082015260408360608360076107d05a03fa9150508061122a576000805260206000f35b6111bb836020840151845184611231565b6101c08101604082015160405161010081016040526112da7f031d07db8cff29072d1eea9b6fd0a1f33315e5d03c1144268a51a510f9f22bb77f0e2b77b6fec105cd875187714c1ba8f0883f25efc2f414898c1fb4361433b9468590815260200152565b61134f7f30644e72e131a029b85045b68181585d2833e84879b9709143e1f593f00000016102643561024435097f1f4e4628718e8ff4c984bfd2e0b020339a6e24216e12a40aafb7f1cc1af16cab7f206bfb2ebe5232a4002d50d79af937d5f9e8a0b15e084e0b0d6a206629b42abd866111c6565b61139e610244357f1d13e843598f23c9c0d87b348618bd824b8e28d31603226448455baa358a7b1b7f096208709ac4ebadf603b291bdeef6d80519af5e3abcb9def9e0b21dfff292ee866111c6565b6113ed610264357f107ce5dc145b65b41220ebaa937c66a80cec19d8466ba47a8132e68d91b20fe47f2ceb6bc5b2556fef7d372ef4c0d3cc8dc9a9a62a6f78b3b28938011728434ce0866111c6565b61143c610284357f068953f056129d4fc66f6b407ae10eff14bd160c5032dd16e241080ca094c7957f0523f969ceff10acc60071206617283eb948e4f397164b848e95c2e6e6f1f118866111c6565b60a08401517f30644e72e131a029b85045b68181585d2833e84879b9709143e1f593f0000001837f30644e72e131a029b85045b68181585d2833e84879b9709143e1f593f0000001836102443508087f30644e72e131a029b85045b68181585d2833e84879b9709143e1f593f0000001847f30644e72e131a029b85045b68181585d2833e84879b9709143e1f593f000000180600286096102643508087f30644e72e131a029b85045b68181585d2833e84879b9709143e1f593f0000001857f30644e72e131a029b85045b68181585d2833e84879b9709143e1f593f0000001806003870961028435080892507f30644e72e131a029b85045b68181585d2833e84879b9709143e1f593f000000160008801517f30644e72e131a029b85045b68181585d2833e84879b9709143e1f593f0000001857f30644e72e131a029b85045b68181585d2833e84879b9709143e1f593f000000185870909097f30644e72e131a029b85045b68181585d2833e84879b9709143e1f593f00000016102c08901516103208a01510960c43560c087015260e43560e087015261162e7f30644e72e131a029b85045b68181585d2833e84879b9709143e1f593f00000016101608b01517f30644e72e131a029b85045b68181585d2833e84879b9709143e1f593f00000018486080860c0880188611265565b50507f30644e72e131a029b85045b68181585d2833e84879b9709143e1f593f0000001857f30644e72e131a029b85045b68181585d2833e84879b9709143e1f593f0000001806102a43560208c01510961024435080891507f30644e72e131a029b85045b68181585d2833e84879b9709143e1f593f0000001857f30644e72e131a029b85045b68181585d2833e84879b9709143e1f593f0000001806102c43560208c01510961026435080890507f30644e72e131a029b85045b68181585d2833e84879b9709143e1f593f00000016102e4357f30644e72e131a029b85045b68181585d2833e84879b9709143e1f593f000000160208a015160008b0151090992506117c57f30644e72e131a029b85045b68181585d2833e84879b9709143e1f593f0000001847f30644e72e131a029b85045b68181585d2833e84879b9709143e1f593f0000001848609097f27b48494663af6fe5086b37ece7e91023e059af79eb8a7315b3fe4a79478bce57f2d0c7d8101615b041f7b554203772e52b1849628a9c94bb90f709c8c907857b360408801611231565b5050506101043560808201526101243560a08201526117f660808501516020610144013561014435608085016111c6565b60808401517f30644e72e131a029b85045b68181585d2833e84879b9709143e1f593f00000019080099150611836826101a43561018435608085016111c6565b6118526102e085015160a0830151608084015160808501611231565b7f30644e72e131a029b85045b68181585d97816a916871ca8d3c208c16d87cfd4760206040830101517f30644e72e131a029b85045b68181585d97816a916871ca8d3c208c16d87cfd47030660206040830101527f30644e72e131a029b85045b68181585d97816a916871ca8d3c208c16d87cfd4760a08201517f30644e72e131a029b85045b68181585d97816a916871ca8d3c208c16d87cfd47030660a08201526118fe818461117a565b61190b604082018461117a565b6111c0608082018461117a565b6101c081015161020082019081526101e082015161022083015260c082015161194790602435600435846111c6565b60e082015161195c90606435604435846111c6565b6101008201516119729060a435608435846111c6565b6119c36101208301517f0ec334c53f83baaf6b02318946f5cd7e18a181a9c104601ca4698244838eaa057f14c1edd466fe7be7938891f42b9ddbbfca3607c73587f3b4e582e43bb5e8a9b0846111c6565b611a146101408301517f1d5191095788cdb9c925d5402ada697a2d89973210bd9bda11e9df9ae8b6d05b7f3052d82e24d9250e78afac5cf302c1116a3521f2c508e4cc0902d400d83791b7846111c6565b5050565b7f30644e72e131a029b85045b68181585d2833e84879b9709143e1f593f00000016101a08201517f30644e72e131a029b85045b68181585d2833e84879b9709143e1f593f000000103067f30644e72e131a029b85045b68181585d2833e84879b9709143e1f593f00000018060c08401516102443509820890507f30644e72e131a029b85045b68181585d2833e84879b9709143e1f593f00000018060e08401516102643509820890507f30644e72e131a029b85045b68181585d2833e84879b9709143e1f593f0000001806101008401516102843509820890507f30644e72e131a029b85045b68181585d2833e84879b9709143e1f593f0000001806101208401516102a43509820890507f30644e72e131a029b85045b68181585d2833e84879b9709143e1f593f0000001806101408401516102c43509820890507f30644e72e131a029b85045b68181585d2833e84879b9709143e1f593f0000001806101608401516102e4350982089050611a1481600260016102408601611231565b6000604051610240810160405261018081016101c082016102008301611bca6101c48481358152602091820135910152565b610204358252610224356020830152611be96101608701518386611265565b611bf3838561117a565b7f30644e72e131a029b85045b68181585d97816a916871ca8d3c208c16d87cfd4760208501517f30644e72e131a029b85045b68181585d97816a916871ca8d3c208c16d87cfd47030660208501527ef312d6d0c720abcff5d187ab4101fabe7cf74105e965e036332bd99d951a2f60408501527f1ae3f8e97f0a54bd6651f45e31bfa85f35c1e4fdd0270c63927603518438153c60608501527f26c88d57067bc9f3b57425609ac862ffc04e09931b1bdf9fd3c4efcbb188755a60808501527f127477b93d25c70c1196f697b825be97445cead1f1031037c9a5fcb1e2dec5cb60a0850152611cea60608701518460c08701611265565b7f30644e72e131a029b85045b68181585d2833e84879b9709143e1f593f000000160608701516101608801510992507f30644e72e131a029b85045b68181585d2833e84879b9709143e1f593f00000017f2d965651cdd9e4811f4e51b80ddca8a8b4a93ee17420aae6adaa01c2617c6e8584099250611d6a838383611265565b611d778160c0860161117a565b505050611d8b610200840160c0830161117a565b610260830180517f30644e72e131a029b85045b68181585d97816a916871ca8d3c208c16d87cfd47908103069052611dca610240840160c0830161117a565b7f198e9393920d483a7260bfb731fb5d25f1aa493335a9e71297e485b7aef312c26101008201527f1800deef121f1e76426a00665e5c4479674322d4f75edadd46debd5cd992f6ed6101208201527f090689d0585ff075ec9e99ad690c3395bc4b313370b38ef355acdadcd122975b6101408201527f12c85ea5db8c6deb4aab71808dcb408fe3d1e7690c43d37b4ce6cc0166fa7daa6101608201526020816101808360086107d05a03fa90511692915050565b6040516103a08101604052611e9161020a565b611e9b8382610254565b611ea4816109e3565b611eae8382610dc4565b611eb781610f26565b611ec081611276565b611ec981611918565b611ed281611a18565b611edb81611b98565b6103a082036040528060005260206000f35b6000806103808385031215611f0157600080fd5b610300830184811115611f1357600080fd5b8392508461038085011115611f2757600080fd5b80915050925092905056fea2646970667358221220c2a911dcb89361f57e16f735cf1cb0267d3e3f63f5f2f14bc27ff5772bc07e9b64736f6c634300081c0033",
          "opcodes": "PUSH1 0x80 PUSH1 0x40 MSTORE CALLVALUE DUP1 ISZERO PUSH1 0xF JUMPI PUSH1 0x0 DUP1 REVERT JUMPDEST POP PUSH2 0x1F68 DUP1 PUSH2 0x1F PUSH1 0x0 CODECOPY PUSH1 0x0 RETURN INVALID PUSH1 0x80 PUSH1 0x40 MSTORE CALLVALUE DUP1 ISZERO PUSH2 0x10 JUMPI PUSH1 0x0 DUP1 REVERT JUMPDEST POP PUSH1 0x4 CALLDATASIZE LT PUSH2 0x2B JUMPI PUSH1 0x0 CALLDATALOAD PUSH1 0xE0 SHR DUP1 PUSH4 0x6183F6B4 EQ PUSH2 0x30 JUMPI JUMPDEST PUSH1 0x0 DUP1 REVERT JUMPDEST PUSH2 0x43 PUSH2 0x3E CALLDATASIZE PUSH1 0x4 PUSH2 0x1EED JUMP JUMPDEST PUSH2 0x57 JUMP JUMPDEST PUSH1 0x40 MLOAD SWAP1 ISZERO ISZERO DUP2 MSTORE PUSH1 0x20 ADD PUSH1 0x40 MLOAD DUP1 SWAP2 SUB SWAP1 RETURN JUMPDEST PUSH1 0x0 PUSH2 0x1E7E JUMP JUMPDEST PUSH1 0x0 DUP1 PUSH1 0x1 DUP5 DUP5 PUSH1 0x0 DUP1 JUMPDEST DUP3 ISZERO PUSH2 0x8B JUMPI POP SWAP3 SWAP4 DUP2 DUP4 SDIV DUP6 DUP2 MUL SWAP1 SWAP2 SUB SWAP4 POP SWAP1 SWAP2 DUP2 DUP4 MUL SWAP1 SUB SWAP1 DUP2 PUSH2 0x69 JUMP JUMPDEST POP POP POP PUSH1 0x1 DUP2 GT ISZERO PUSH2 0x9C JUMPI PUSH1 0x0 DUP1 REVERT JUMPDEST POP POP PUSH1 0x0 DUP2 SLT ISZERO PUSH2 0xAA JUMPI DUP4 ADD JUMPDEST SWAP4 SWAP3 POP POP POP JUMP JUMPDEST PUSH1 0x40 MLOAD DUP2 PUSH1 0x20 DUP5 MUL DUP4 ADD DUP2 MLOAD PUSH1 0x20 DUP4 ADD SWAP3 POP PUSH1 0x0 JUMPDEST DUP3 DUP5 LT ISZERO PUSH2 0x109 JUMPI DUP2 DUP6 MSTORE PUSH32 0x30644E72E131A029B85045B68181585D2833E84879B9709143E1F593F0000001 DUP5 MLOAD DUP4 MULMOD SWAP2 POP PUSH1 0x20 DUP6 ADD SWAP5 POP PUSH1 0x20 DUP5 ADD SWAP4 POP PUSH2 0xC6 JUMP JUMPDEST PUSH2 0x133 PUSH32 0x30644E72E131A029B85045B68181585D2833E84879B9709143E1F593F0000001 DUP4 PUSH2 0x5E JUMP JUMPDEST SWAP2 POP PUSH1 0x20 DUP6 SUB SWAP5 POP PUSH1 0x20 DUP5 SUB SWAP4 POP DUP6 SWAP3 POP JUMPDEST DUP3 DUP5 GT ISZERO PUSH2 0x1CC JUMPI PUSH32 0x30644E72E131A029B85045B68181585D2833E84879B9709143E1F593F0000001 DUP6 MLOAD DUP4 MULMOD SWAP1 POP PUSH32 0x30644E72E131A029B85045B68181585D2833E84879B9709143E1F593F0000001 DUP5 MLOAD DUP4 MULMOD DUP2 DUP6 MSTORE PUSH32 0xFFFFFFFFFFFFFFFFFFFFFFFFFFFFFFFFFFFFFFFFFFFFFFFFFFFFFFFFFFFFFFE0 SWAP6 DUP7 ADD SWAP6 SWAP1 SWAP5 ADD SWAP4 SWAP2 POP PUSH2 0x145 JUMP JUMPDEST POP SWAP1 SWAP2 MSTORE POP POP POP POP JUMP JUMPDEST PUSH32 0x30644E72E131A029B85045B68181585D2833E84879B9709143E1F593F0000001 DUP2 LT PUSH2 0x207 JUMPI PUSH1 0x0 DUP1 MSTORE PUSH1 0x20 PUSH1 0x0 RETURN JUMPDEST POP JUMP JUMPDEST PUSH2 0x216 PUSH2 0x244 CALLDATALOAD PUSH2 0x1D6 JUMP JUMPDEST PUSH2 0x222 PUSH2 0x264 CALLDATALOAD PUSH2 0x1D6 JUMP JUMPDEST PUSH2 0x22E PUSH2 0x284 CALLDATALOAD PUSH2 0x1D6 JUMP JUMPDEST PUSH2 0x23A PUSH2 0x2A4 CALLDATALOAD PUSH2 0x1D6 JUMP JUMPDEST PUSH2 0x246 PUSH2 0x2C4 CALLDATALOAD PUSH2 0x1D6 JUMP JUMPDEST PUSH2 0x252 PUSH2 0x2E4 CALLDATALOAD PUSH2 0x1D6 JUMP JUMPDEST JUMP JUMPDEST PUSH1 0x40 DUP1 MLOAD PUSH32 0x206BFB2EBE5232A4002D50D79AF937D5F9E8A0B15E084E0B0D6A206629B42ABD DUP2 MSTORE PUSH32 0x1F4E4628718E8FF4C984BFD2E0B020339A6E24216E12A40AAFB7F1CC1AF16CAB PUSH1 0x20 DUP1 DUP4 ADD SWAP2 DUP3 MSTORE PUSH32 0x96208709AC4EBADF603B291BDEEF6D80519AF5E3ABCB9DEF9E0B21DFFF292EE DUP4 DUP6 ADD SWAP1 DUP2 MSTORE PUSH32 0x1D13E843598F23C9C0D87B348618BD824B8E28D31603226448455BAA358A7B1B PUSH1 0x60 DUP1 DUP7 ADD SWAP2 DUP3 MSTORE PUSH32 0x2CEB6BC5B2556FEF7D372EF4C0D3CC8DC9A9A62A6F78B3B28938011728434CE0 PUSH1 0x80 DUP1 DUP9 ADD SWAP2 SWAP1 SWAP2 MSTORE PUSH32 0x107CE5DC145B65B41220EBAA937C66A80CEC19D8466BA47A8132E68D91B20FE4 PUSH1 0xA0 DUP9 ADD MSTORE PUSH32 0x523F969CEFF10ACC60071206617283EB948E4F397164B848E95C2E6E6F1F118 PUSH1 0xC0 DUP9 ADD MSTORE PUSH32 0x68953F056129D4FC66F6B407AE10EFF14BD160C5032DD16E241080CA094C795 PUSH1 0xE0 DUP9 ADD MSTORE PUSH32 0xE2B77B6FEC105CD875187714C1BA8F0883F25EFC2F414898C1FB4361433B946 PUSH2 0x100 DUP9 ADD MSTORE PUSH32 0x31D07DB8CFF29072D1EEA9B6FD0A1F33315E5D03C1144268A51A510F9F22BB7 PUSH2 0x120 DUP9 ADD MSTORE PUSH32 0x14C1EDD466FE7BE7938891F42B9DDBBFCA3607C73587F3B4E582E43BB5E8A9B0 PUSH2 0x140 DUP9 ADD MSTORE PUSH32 0xEC334C53F83BAAF6B02318946F5CD7E18A181A9C104601CA4698244838EAA05 PUSH2 0x160 DUP9 ADD MSTORE PUSH32 0x3052D82E24D9250E78AFAC5CF302C1116A3521F2C508E4CC0902D400D83791B7 PUSH2 0x180 DUP9 ADD MSTORE PUSH32 0x1D5191095788CDB9C925D5402ADA697A2D89973210BD9BDA11E9DF9AE8B6D05B PUSH2 0x1A0 DUP9 ADD MSTORE PUSH32 0x2D0C7D8101615B041F7B554203772E52B1849628A9C94BB90F709C8C907857B3 PUSH2 0x1C0 DUP9 ADD MSTORE PUSH32 0x27B48494663AF6FE5086B37ECE7E91023E059AF79EB8A7315B3FE4A79478BCE5 PUSH2 0x1E0 DUP9 ADD MSTORE DUP10 CALLDATALOAD PUSH2 0x200 DUP9 ADD MSTORE DUP10 DUP6 ADD CALLDATALOAD PUSH2 0x220 DUP9 ADD MSTORE DUP10 DUP9 ADD CALLDATALOAD PUSH2 0x240 DUP9 ADD MSTORE SWAP1 DUP10 ADD CALLDATALOAD PUSH2 0x260 DUP8 ADD MSTORE PUSH1 0x4 CALLDATALOAD PUSH2 0x280 DUP8 ADD MSTORE PUSH1 0x24 CALLDATALOAD PUSH2 0x2A0 DUP8 ADD MSTORE PUSH1 0x44 CALLDATALOAD PUSH2 0x2C0 DUP8 ADD MSTORE PUSH1 0x64 CALLDATALOAD PUSH2 0x2E0 DUP8 ADD MSTORE PUSH1 0x84 CALLDATALOAD PUSH2 0x300 DUP8 ADD MSTORE PUSH1 0xA4 CALLDATALOAD PUSH2 0x320 DUP8 ADD MSTORE PUSH2 0x340 DUP7 KECCAK256 PUSH32 0x30644E72E131A029B85045B68181585D2833E84879B9709143E1F593F0000001 SWAP1 DUP2 SWAP1 MOD DUP10 DUP7 ADD DUP2 DUP2 MSTORE SWAP6 SWAP1 SWAP6 KECCAK256 DUP2 SWAP1 MOD SWAP8 DUP10 ADD SWAP8 DUP9 MSTORE DUP5 DUP8 MSTORE SWAP7 MLOAD SWAP1 SWAP5 MSTORE PUSH1 0xC4 CALLDATALOAD SWAP1 SWAP2 MSTORE PUSH1 0xE4 CALLDATALOAD SWAP1 MSTORE SWAP1 DUP3 KECCAK256 DUP4 SWAP1 MOD DUP1 DUP6 MSTORE SWAP1 SWAP3 SWAP1 SWAP2 SWAP1 DUP3 DUP1 MULMOD PUSH2 0x2C0 DUP6 ADD MSTORE DUP2 DUP2 MSTORE PUSH2 0x104 CALLDATALOAD PUSH1 0x20 DUP3 ADD MSTORE PUSH1 0x20 PUSH2 0x104 ADD CALLDATALOAD PUSH1 0x40 DUP3 ADD MSTORE PUSH2 0x144 CALLDATALOAD PUSH1 0x60 DUP3 ADD MSTORE PUSH1 0x20 PUSH2 0x144 ADD CALLDATALOAD PUSH1 0x80 DUP3 ADD MSTORE PUSH2 0x184 CALLDATALOAD PUSH1 0xA0 DUP3 ADD MSTORE PUSH1 0x20 PUSH2 0x184 ADD CALLDATALOAD PUSH1 0xC0 DUP3 ADD MSTORE PUSH32 0x30644E72E131A029B85045B68181585D2833E84879B9709143E1F593F0000001 PUSH1 0xE0 DUP3 KECCAK256 MOD SWAP2 POP DUP2 PUSH1 0x60 DUP6 ADD MSTORE DUP2 DUP2 MSTORE PUSH2 0x244 CALLDATALOAD PUSH1 0x20 DUP3 ADD MSTORE PUSH2 0x264 CALLDATALOAD PUSH1 0x40 DUP3 ADD MSTORE PUSH2 0x284 CALLDATALOAD PUSH1 0x60 DUP3 ADD MSTORE PUSH2 0x2A4 CALLDATALOAD PUSH1 0x80 DUP3 ADD MSTORE PUSH2 0x2C4 CALLDATALOAD PUSH1 0xA0 DUP3 ADD MSTORE PUSH2 0x2E4 CALLDATALOAD PUSH1 0xC0 DUP3 ADD MSTORE PUSH32 0x30644E72E131A029B85045B68181585D2833E84879B9709143E1F593F0000001 PUSH1 0xE0 DUP3 KECCAK256 MOD DUP1 PUSH1 0xC0 DUP7 ADD MSTORE PUSH32 0x30644E72E131A029B85045B68181585D2833E84879B9709143E1F593F0000001 DUP4 DUP6 MULMOD PUSH1 0xA0 DUP7 ADD MSTORE PUSH32 0x30644E72E131A029B85045B68181585D2833E84879B9709143E1F593F0000001 DUP4 DUP5 MULMOD SWAP3 POP PUSH32 0x30644E72E131A029B85045B68181585D2833E84879B9709143E1F593F0000001 DUP4 DUP5 MULMOD SWAP3 POP PUSH32 0x30644E72E131A029B85045B68181585D2833E84879B9709143E1F593F0000001 DUP4 DUP5 MULMOD SWAP3 POP PUSH32 0x30644E72E131A029B85045B68181585D2833E84879B9709143E1F593F0000001 DUP4 DUP5 MULMOD SWAP3 POP PUSH32 0x30644E72E131A029B85045B68181585D2833E84879B9709143E1F593F0000001 DUP4 DUP5 MULMOD SWAP3 POP PUSH32 0x30644E72E131A029B85045B68181585D2833E84879B9709143E1F593F0000001 DUP4 DUP5 MULMOD SWAP3 POP PUSH32 0x30644E72E131A029B85045B68181585D2833E84879B9709143E1F593F0000001 DUP4 DUP5 MULMOD SWAP3 POP PUSH32 0x30644E72E131A029B85045B68181585D2833E84879B9709143E1F593F0000001 DUP4 DUP5 MULMOD SWAP3 POP PUSH32 0x30644E72E131A029B85045B68181585D2833E84879B9709143E1F593F0000001 DUP4 DUP5 MULMOD SWAP3 POP PUSH32 0x30644E72E131A029B85045B68181585D2833E84879B9709143E1F593F0000001 DUP4 DUP5 MULMOD SWAP3 POP PUSH32 0x30644E72E131A029B85045B68181585D2833E84879B9709143E1F593F0000001 DUP4 DUP5 MULMOD SWAP3 POP PUSH32 0x30644E72E131A029B85045B68181585D2833E84879B9709143E1F593F0000001 DUP4 DUP5 MULMOD SWAP3 POP PUSH32 0x30644E72E131A029B85045B68181585D2833E84879B9709143E1F593F0000001 DUP4 DUP5 MULMOD SWAP3 POP PUSH32 0x30644E72E131A029B85045B68181585D2833E84879B9709143E1F593F0000001 DUP4 DUP5 MULMOD SWAP3 POP DUP3 PUSH1 0x80 DUP7 ADD MSTORE PUSH32 0x30644E72E131A029B85045B68181585D2833E84879B9709143E1F593F0000001 DUP1 PUSH1 0x1 DUP6 SUB ADD MOD SWAP3 POP DUP3 PUSH2 0x2E0 DUP7 ADD MSTORE DUP3 PUSH2 0x300 DUP7 ADD MSTORE PUSH32 0x30644E72E131A029B85045B68181585D2833E84879B9709143E1F593F0000001 DUP2 DUP3 MULMOD SWAP3 POP DUP3 PUSH1 0xE0 DUP7 ADD MSTORE PUSH32 0x30644E72E131A029B85045B68181585D2833E84879B9709143E1F593F0000001 DUP2 DUP5 MULMOD SWAP3 POP DUP3 PUSH2 0x100 DUP7 ADD MSTORE PUSH32 0x30644E72E131A029B85045B68181585D2833E84879B9709143E1F593F0000001 DUP2 DUP5 MULMOD SWAP3 POP DUP3 PUSH2 0x120 DUP7 ADD MSTORE PUSH32 0x30644E72E131A029B85045B68181585D2833E84879B9709143E1F593F0000001 DUP2 DUP5 MULMOD PUSH2 0x140 DUP7 ADD MSTORE POP PUSH2 0x1C4 CALLDATALOAD DUP2 MSTORE PUSH2 0x1E4 CALLDATALOAD PUSH1 0x20 DUP3 ADD MSTORE PUSH2 0x204 CALLDATALOAD PUSH1 0x40 DUP3 ADD MSTORE PUSH2 0x224 CALLDATALOAD PUSH1 0x60 DUP3 ADD MSTORE PUSH1 0x80 SWAP1 KECCAK256 PUSH32 0x30644E72E131A029B85045B68181585D2833E84879B9709143E1F593F0000001 SWAP1 MOD PUSH2 0x160 SWAP1 SWAP4 ADD SWAP3 SWAP1 SWAP3 MSTORE POP POP POP JUMP JUMPDEST PUSH1 0x1 PUSH32 0x30644E72E131A029B85045B68181585D2833E84879B9709143E1F593F0000001 DUP1 PUSH32 0x30644E72E131A029B85045B68181585D2833E84879B9709143E1F593F0000001 DUP4 PUSH1 0x60 DUP7 ADD MLOAD SUB ADD MOD PUSH2 0x4000 MULMOD PUSH2 0x320 DUP4 ADD MSTORE PUSH32 0x30644E72E131A029B85045B68181585D2833E84879B9709143E1F593F0000001 PUSH32 0x2D965651CDD9E4811F4E51B80DDCA8A8B4A93EE17420AAE6ADAA01C2617C6E85 DUP3 MULMOD SWAP1 POP PUSH32 0x30644E72E131A029B85045B68181585D2833E84879B9709143E1F593F0000001 DUP1 PUSH32 0x30644E72E131A029B85045B68181585D2833E84879B9709143E1F593F0000001 DUP4 PUSH1 0x60 DUP7 ADD MLOAD SUB ADD MOD PUSH2 0x4000 MULMOD PUSH2 0x340 DUP4 ADD MSTORE PUSH32 0x30644E72E131A029B85045B68181585D2833E84879B9709143E1F593F0000001 PUSH32 0x2D965651CDD9E4811F4E51B80DDCA8A8B4A93EE17420AAE6ADAA01C2617C6E85 DUP3 MULMOD SWAP1 POP PUSH32 0x30644E72E131A029B85045B68181585D2833E84879B9709143E1F593F0000001 DUP1 PUSH32 0x30644E72E131A029B85045B68181585D2833E84879B9709143E1F593F0000001 DUP4 PUSH1 0x60 DUP7 ADD MLOAD SUB ADD MOD PUSH2 0x4000 MULMOD PUSH2 0x360 DUP4 ADD MSTORE PUSH32 0x30644E72E131A029B85045B68181585D2833E84879B9709143E1F593F0000001 PUSH32 0x2D965651CDD9E4811F4E51B80DDCA8A8B4A93EE17420AAE6ADAA01C2617C6E85 DUP3 MULMOD SWAP1 POP PUSH32 0x30644E72E131A029B85045B68181585D2833E84879B9709143E1F593F0000001 DUP1 PUSH32 0x30644E72E131A029B85045B68181585D2833E84879B9709143E1F593F0000001 DUP4 PUSH1 0x60 DUP7 ADD MLOAD SUB ADD MOD PUSH2 0x4000 MULMOD PUSH2 0x380 DUP4 ADD MSTORE PUSH2 0xC1E PUSH1 0x5 PUSH2 0x300 DUP5 ADD PUSH2 0xB1 JUMP JUMPDEST PUSH2 0x2E0 DUP3 ADD MLOAD PUSH1 0x1 SWAP2 POP PUSH32 0x30644E72E131A029B85045B68181585D2833E84879B9709143E1F593F0000001 DUP2 PUSH2 0x320 DUP6 ADD MLOAD MULMOD PUSH2 0x320 DUP5 ADD MSTORE PUSH32 0x30644E72E131A029B85045B68181585D2833E84879B9709143E1F593F0000001 PUSH32 0x2D965651CDD9E4811F4E51B80DDCA8A8B4A93EE17420AAE6ADAA01C2617C6E85 DUP4 MULMOD SWAP2 POP PUSH32 0x30644E72E131A029B85045B68181585D2833E84879B9709143E1F593F0000001 DUP1 DUP3 PUSH2 0x340 DUP7 ADD MLOAD MULMOD DUP4 MULMOD PUSH2 0x340 DUP5 ADD MSTORE PUSH32 0x30644E72E131A029B85045B68181585D2833E84879B9709143E1F593F0000001 PUSH32 0x2D965651CDD9E4811F4E51B80DDCA8A8B4A93EE17420AAE6ADAA01C2617C6E85 DUP4 MULMOD SWAP2 POP PUSH32 0x30644E72E131A029B85045B68181585D2833E84879B9709143E1F593F0000001 DUP1 DUP3 PUSH2 0x360 DUP7 ADD MLOAD MULMOD DUP4 MULMOD PUSH2 0x360 DUP5 ADD MSTORE PUSH32 0x30644E72E131A029B85045B68181585D2833E84879B9709143E1F593F0000001 PUSH32 0x2D965651CDD9E4811F4E51B80DDCA8A8B4A93EE17420AAE6ADAA01C2617C6E85 DUP4 MULMOD SWAP2 POP PUSH32 0x30644E72E131A029B85045B68181585D2833E84879B9709143E1F593F0000001 DUP1 DUP3 PUSH2 0x380 DUP7 ADD MLOAD MULMOD DUP4 MULMOD PUSH2 0x380 DUP5 ADD MSTORE POP POP POP JUMP JUMPDEST PUSH1 0x0 PUSH32 0x30644E72E131A029B85045B68181585D2833E84879B9709143E1F593F0000001 DUP1 PUSH32 0x30644E72E131A029B85045B68181585D2833E84879B9709143E1F593F0000001 PUSH1 0x0 DUP7 ADD CALLDATALOAD PUSH2 0x320 DUP7 ADD MLOAD MULMOD DUP4 SUB ADD MOD SWAP1 POP PUSH32 0x30644E72E131A029B85045B68181585D2833E84879B9709143E1F593F0000001 DUP1 PUSH32 0x30644E72E131A029B85045B68181585D2833E84879B9709143E1F593F0000001 PUSH1 0x20 DUP7 ADD CALLDATALOAD PUSH2 0x340 DUP7 ADD MLOAD MULMOD DUP4 SUB ADD MOD SWAP1 POP PUSH32 0x30644E72E131A029B85045B68181585D2833E84879B9709143E1F593F0000001 DUP1 PUSH32 0x30644E72E131A029B85045B68181585D2833E84879B9709143E1F593F0000001 PUSH1 0x40 DUP7 ADD CALLDATALOAD PUSH2 0x360 DUP7 ADD MLOAD MULMOD DUP4 SUB ADD MOD SWAP1 POP PUSH32 0x30644E72E131A029B85045B68181585D2833E84879B9709143E1F593F0000001 DUP1 PUSH32 0x30644E72E131A029B85045B68181585D2833E84879B9709143E1F593F0000001 PUSH1 0x60 DUP7 ADD CALLDATALOAD PUSH2 0x380 DUP7 ADD MLOAD MULMOD DUP4 SUB ADD MOD SWAP1 POP DUP1 PUSH2 0x180 DUP4 ADD MSTORE POP POP POP JUMP JUMPDEST PUSH2 0x180 DUP2 ADD MLOAD PUSH32 0x30644E72E131A029B85045B68181585D2833E84879B9709143E1F593F0000001 PUSH2 0x2C0 DUP4 ADD MLOAD PUSH2 0x320 DUP5 ADD MLOAD MULMOD PUSH32 0x30644E72E131A029B85045B68181585D2833E84879B9709143E1F593F0000001 DUP1 PUSH2 0x2A4 CALLDATALOAD PUSH1 0x20 DUP7 ADD MLOAD MULMOD PUSH2 0x244 CALLDATALOAD ADDMOD PUSH32 0x30644E72E131A029B85045B68181585D2833E84879B9709143E1F593F0000001 PUSH1 0x40 DUP6 ADD MLOAD DUP3 ADDMOD SWAP1 POP PUSH32 0x30644E72E131A029B85045B68181585D2833E84879B9709143E1F593F0000001 DUP1 PUSH2 0x2C4 CALLDATALOAD PUSH1 0x20 DUP8 ADD MLOAD MULMOD PUSH2 0x264 CALLDATALOAD ADDMOD PUSH32 0x30644E72E131A029B85045B68181585D2833E84879B9709143E1F593F0000001 PUSH1 0x40 DUP7 ADD MLOAD DUP3 ADDMOD SWAP1 POP PUSH32 0x30644E72E131A029B85045B68181585D2833E84879B9709143E1F593F0000001 PUSH1 0x40 DUP7 ADD MLOAD PUSH2 0x284 CALLDATALOAD ADDMOD PUSH32 0x30644E72E131A029B85045B68181585D2833E84879B9709143E1F593F0000001 DUP2 PUSH32 0x30644E72E131A029B85045B68181585D2833E84879B9709143E1F593F0000001 DUP5 DUP7 MULMOD MULMOD SWAP3 POP POP POP PUSH32 0x30644E72E131A029B85045B68181585D2833E84879B9709143E1F593F0000001 PUSH2 0x2E4 CALLDATALOAD DUP3 MULMOD SWAP1 POP PUSH32 0x30644E72E131A029B85045B68181585D2833E84879B9709143E1F593F0000001 PUSH1 0x0 DUP6 ADD MLOAD DUP3 MULMOD SWAP1 POP PUSH32 0x30644E72E131A029B85045B68181585D2833E84879B9709143E1F593F0000001 DUP1 DUP4 PUSH32 0x30644E72E131A029B85045B68181585D2833E84879B9709143E1F593F0000001 SUB MOD DUP5 ADDMOD SWAP3 POP PUSH32 0x30644E72E131A029B85045B68181585D2833E84879B9709143E1F593F0000001 DUP1 DUP3 PUSH32 0x30644E72E131A029B85045B68181585D2833E84879B9709143E1F593F0000001 SUB MOD DUP5 ADDMOD SWAP3 POP POP POP DUP1 PUSH2 0x1A0 DUP4 ADD MSTORE POP POP JUMP JUMPDEST PUSH1 0x40 MLOAD DUP2 MLOAD DUP2 MSTORE PUSH1 0x20 DUP3 ADD MLOAD PUSH1 0x20 DUP3 ADD MSTORE DUP3 MLOAD PUSH1 0x40 DUP3 ADD MSTORE PUSH1 0x20 DUP4 ADD MLOAD PUSH1 0x60 DUP3 ADD MSTORE PUSH1 0x40 DUP3 PUSH1 0x80 DUP4 PUSH1 0x6 PUSH2 0x7D0 GAS SUB STATICCALL SWAP1 POP DUP1 PUSH2 0x11BB JUMPI PUSH1 0x0 DUP1 MSTORE PUSH1 0x20 PUSH1 0x0 RETURN JUMPDEST POP POP POP JUMP JUMPDEST POP POP POP POP JUMP JUMPDEST PUSH1 0x0 PUSH1 0x40 MLOAD DUP4 DUP2 MSTORE DUP5 PUSH1 0x20 DUP3 ADD MSTORE DUP6 PUSH1 0x40 DUP3 ADD MSTORE PUSH1 0x40 DUP2 PUSH1 0x60 DUP4 PUSH1 0x7 PUSH2 0x7D0 GAS SUB STATICCALL SWAP2 POP DUP2 PUSH2 0x11F9 JUMPI PUSH1 0x0 DUP1 MSTORE PUSH1 0x20 PUSH1 0x0 RETURN JUMPDEST DUP3 MLOAD PUSH1 0x40 DUP3 ADD MSTORE PUSH1 0x20 DUP4 ADD MLOAD PUSH1 0x60 DUP3 ADD MSTORE PUSH1 0x40 DUP4 PUSH1 0x80 DUP4 PUSH1 0x6 PUSH2 0x7D0 GAS SUB STATICCALL SWAP2 POP POP DUP1 PUSH2 0x122A JUMPI PUSH1 0x0 DUP1 MSTORE PUSH1 0x20 PUSH1 0x0 RETURN JUMPDEST POP POP POP POP POP JUMP JUMPDEST PUSH1 0x0 PUSH1 0x40 MLOAD DUP4 DUP2 MSTORE DUP5 PUSH1 0x20 DUP3 ADD MSTORE DUP6 PUSH1 0x40 DUP3 ADD MSTORE PUSH1 0x40 DUP4 PUSH1 0x60 DUP4 PUSH1 0x7 PUSH2 0x7D0 GAS SUB STATICCALL SWAP2 POP POP DUP1 PUSH2 0x122A JUMPI PUSH1 0x0 DUP1 MSTORE PUSH1 0x20 PUSH1 0x0 RETURN JUMPDEST PUSH2 0x11BB DUP4 PUSH1 0x20 DUP5 ADD MLOAD DUP5 MLOAD DUP5 PUSH2 0x1231 JUMP JUMPDEST PUSH2 0x1C0 DUP2 ADD PUSH1 0x40 DUP3 ADD MLOAD PUSH1 0x40 MLOAD PUSH2 0x100 DUP2 ADD PUSH1 0x40 MSTORE PUSH2 0x12DA PUSH32 0x31D07DB8CFF29072D1EEA9B6FD0A1F33315E5D03C1144268A51A510F9F22BB7 PUSH32 0xE2B77B6FEC105CD875187714C1BA8F0883F25EFC2F414898C1FB4361433B946 DUP6 SWAP1 DUP2 MSTORE PUSH1 0x20 ADD MSTORE JUMP JUMPDEST PUSH2 0x134F PUSH32 0x30644E72E131A029B85045B68181585D2833E84879B9709143E1F593F0000001 PUSH2 0x264 CALLDATALOAD PUSH2 0x244 CALLDATALOAD MULMOD PUSH32 0x1F4E4628718E8FF4C984BFD2E0B020339A6E24216E12A40AAFB7F1CC1AF16CAB PUSH32 0x206BFB2EBE5232A4002D50D79AF937D5F9E8A0B15E084E0B0D6A206629B42ABD DUP7 PUSH2 0x11C6 JUMP JUMPDEST PUSH2 0x139E PUSH2 0x244 CALLDATALOAD PUSH32 0x1D13E843598F23C9C0D87B348618BD824B8E28D31603226448455BAA358A7B1B PUSH32 0x96208709AC4EBADF603B291BDEEF6D80519AF5E3ABCB9DEF9E0B21DFFF292EE DUP7 PUSH2 0x11C6 JUMP JUMPDEST PUSH2 0x13ED PUSH2 0x264 CALLDATALOAD PUSH32 0x107CE5DC145B65B41220EBAA937C66A80CEC19D8466BA47A8132E68D91B20FE4 PUSH32 0x2CEB6BC5B2556FEF7D372EF4C0D3CC8DC9A9A62A6F78B3B28938011728434CE0 DUP7 PUSH2 0x11C6 JUMP JUMPDEST PUSH2 0x143C PUSH2 0x284 CALLDATALOAD PUSH32 0x68953F056129D4FC66F6B407AE10EFF14BD160C5032DD16E241080CA094C795 PUSH32 0x523F969CEFF10ACC60071206617283EB948E4F397164B848E95C2E6E6F1F118 DUP7 PUSH2 0x11C6 JUMP JUMPDEST PUSH1 0xA0 DUP5 ADD MLOAD PUSH32 0x30644E72E131A029B85045B68181585D2833E84879B9709143E1F593F0000001 DUP4 PUSH32 0x30644E72E131A029B85045B68181585D2833E84879B9709143E1F593F0000001 DUP4 PUSH2 0x244 CALLDATALOAD ADDMOD ADDMOD PUSH32 0x30644E72E131A029B85045B68181585D2833E84879B9709143E1F593F0000001 DUP5 PUSH32 0x30644E72E131A029B85045B68181585D2833E84879B9709143E1F593F0000001 DUP1 PUSH1 0x2 DUP7 MULMOD PUSH2 0x264 CALLDATALOAD ADDMOD ADDMOD PUSH32 0x30644E72E131A029B85045B68181585D2833E84879B9709143E1F593F0000001 DUP6 PUSH32 0x30644E72E131A029B85045B68181585D2833E84879B9709143E1F593F0000001 DUP1 PUSH1 0x3 DUP8 MULMOD PUSH2 0x284 CALLDATALOAD ADDMOD ADDMOD SWAP3 POP PUSH32 0x30644E72E131A029B85045B68181585D2833E84879B9709143E1F593F0000001 PUSH1 0x0 DUP9 ADD MLOAD PUSH32 0x30644E72E131A029B85045B68181585D2833E84879B9709143E1F593F0000001 DUP6 PUSH32 0x30644E72E131A029B85045B68181585D2833E84879B9709143E1F593F0000001 DUP6 DUP8 MULMOD MULMOD MULMOD PUSH32 0x30644E72E131A029B85045B68181585D2833E84879B9709143E1F593F0000001 PUSH2 0x2C0 DUP10 ADD MLOAD PUSH2 0x320 DUP11 ADD MLOAD MULMOD PUSH1 0xC4 CALLDATALOAD PUSH1 0xC0 DUP8 ADD MSTORE PUSH1 0xE4 CALLDATALOAD PUSH1 0xE0 DUP8 ADD MSTORE PUSH2 0x162E PUSH32 0x30644E72E131A029B85045B68181585D2833E84879B9709143E1F593F0000001 PUSH2 0x160 DUP12 ADD MLOAD PUSH32 0x30644E72E131A029B85045B68181585D2833E84879B9709143E1F593F0000001 DUP5 DUP7 ADDMOD ADDMOD PUSH1 0xC0 DUP9 ADD DUP9 PUSH2 0x1265 JUMP JUMPDEST POP POP PUSH32 0x30644E72E131A029B85045B68181585D2833E84879B9709143E1F593F0000001 DUP6 PUSH32 0x30644E72E131A029B85045B68181585D2833E84879B9709143E1F593F0000001 DUP1 PUSH2 0x2A4 CALLDATALOAD PUSH1 0x20 DUP13 ADD MLOAD MULMOD PUSH2 0x244 CALLDATALOAD ADDMOD ADDMOD SWAP2 POP PUSH32 0x30644E72E131A029B85045B68181585D2833E84879B9709143E1F593F0000001 DUP6 PUSH32 0x30644E72E131A029B85045B68181585D2833E84879B9709143E1F593F0000001 DUP1 PUSH2 0x2C4 CALLDATALOAD PUSH1 0x20 DUP13 ADD MLOAD MULMOD PUSH2 0x264 CALLDATALOAD ADDMOD ADDMOD SWAP1 POP PUSH32 0x30644E72E131A029B85045B68181585D2833E84879B9709143E1F593F0000001 PUSH2 0x2E4 CALLDATALOAD PUSH32 0x30644E72E131A029B85045B68181585D2833E84879B9709143E1F593F0000001 PUSH1 0x20 DUP11 ADD MLOAD PUSH1 0x0 DUP12 ADD MLOAD MULMOD MULMOD SWAP3 POP PUSH2 0x17C5 PUSH32 0x30644E72E131A029B85045B68181585D2833E84879B9709143E1F593F0000001 DUP5 PUSH32 0x30644E72E131A029B85045B68181585D2833E84879B9709143E1F593F0000001 DUP5 DUP7 MULMOD MULMOD PUSH32 0x27B48494663AF6FE5086B37ECE7E91023E059AF79EB8A7315B3FE4A79478BCE5 PUSH32 0x2D0C7D8101615B041F7B554203772E52B1849628A9C94BB90F709C8C907857B3 PUSH1 0x40 DUP9 ADD PUSH2 0x1231 JUMP JUMPDEST POP POP POP PUSH2 0x104 CALLDATALOAD PUSH1 0x80 DUP3 ADD MSTORE PUSH2 0x124 CALLDATALOAD PUSH1 0xA0 DUP3 ADD MSTORE PUSH2 0x17F6 PUSH1 0x80 DUP6 ADD MLOAD PUSH1 0x20 PUSH2 0x144 ADD CALLDATALOAD PUSH2 0x144 CALLDATALOAD PUSH1 0x80 DUP6 ADD PUSH2 0x11C6 JUMP JUMPDEST PUSH1 0x80 DUP5 ADD MLOAD PUSH32 0x30644E72E131A029B85045B68181585D2833E84879B9709143E1F593F0000001 SWAP1 DUP1 MULMOD SWAP2 POP PUSH2 0x1836 DUP3 PUSH2 0x1A4 CALLDATALOAD PUSH2 0x184 CALLDATALOAD PUSH1 0x80 DUP6 ADD PUSH2 0x11C6 JUMP JUMPDEST PUSH2 0x1852 PUSH2 0x2E0 DUP6 ADD MLOAD PUSH1 0xA0 DUP4 ADD MLOAD PUSH1 0x80 DUP5 ADD MLOAD PUSH1 0x80 DUP6 ADD PUSH2 0x1231 JUMP JUMPDEST PUSH32 0x30644E72E131A029B85045B68181585D97816A916871CA8D3C208C16D87CFD47 PUSH1 0x20 PUSH1 0x40 DUP4 ADD ADD MLOAD PUSH32 0x30644E72E131A029B85045B68181585D97816A916871CA8D3C208C16D87CFD47 SUB MOD PUSH1 0x20 PUSH1 0x40 DUP4 ADD ADD MSTORE PUSH32 0x30644E72E131A029B85045B68181585D97816A916871CA8D3C208C16D87CFD47 PUSH1 0xA0 DUP3 ADD MLOAD PUSH32 0x30644E72E131A029B85045B68181585D97816A916871CA8D3C208C16D87CFD47 SUB MOD PUSH1 0xA0 DUP3 ADD MSTORE PUSH2 0x18FE DUP2 DUP5 PUSH2 0x117A JUMP JUMPDEST PUSH2 0x190B PUSH1 0x40 DUP3 ADD DUP5 PUSH2 0x117A JUMP JUMPDEST PUSH2 0x11C0 PUSH1 0x80 DUP3 ADD DUP5 PUSH2 0x117A JUMP JUMPDEST PUSH2 0x1C0 DUP2 ADD MLOAD PUSH2 0x200 DUP3 ADD SWAP1 DUP2 MSTORE PUSH2 0x1E0 DUP3 ADD MLOAD PUSH2 0x220 DUP4 ADD MSTORE PUSH1 0xC0 DUP3 ADD MLOAD PUSH2 0x1947 SWAP1 PUSH1 0x24 CALLDATALOAD PUSH1 0x4 CALLDATALOAD DUP5 PUSH2 0x11C6 JUMP JUMPDEST PUSH1 0xE0 DUP3 ADD MLOAD PUSH2 0x195C SWAP1 PUSH1 0x64 CALLDATALOAD PUSH1 0x44 CALLDATALOAD DUP5 PUSH2 0x11C6 JUMP JUMPDEST PUSH2 0x100 DUP3 ADD MLOAD PUSH2 0x1972 SWAP1 PUSH1 0xA4 CALLDATALOAD PUSH1 0x84 CALLDATALOAD DUP5 PUSH2 0x11C6 JUMP JUMPDEST PUSH2 0x19C3 PUSH2 0x120 DUP4 ADD MLOAD PUSH32 0xEC334C53F83BAAF6B02318946F5CD7E18A181A9C104601CA4698244838EAA05 PUSH32 0x14C1EDD466FE7BE7938891F42B9DDBBFCA3607C73587F3B4E582E43BB5E8A9B0 DUP5 PUSH2 0x11C6 JUMP JUMPDEST PUSH2 0x1A14 PUSH2 0x140 DUP4 ADD MLOAD PUSH32 0x1D5191095788CDB9C925D5402ADA697A2D89973210BD9BDA11E9DF9AE8B6D05B PUSH32 0x3052D82E24D9250E78AFAC5CF302C1116A3521F2C508E4CC0902D400D83791B7 DUP5 PUSH2 0x11C6 JUMP JUMPDEST POP POP JUMP JUMPDEST PUSH32 0x30644E72E131A029B85045B68181585D2833E84879B9709143E1F593F0000001 PUSH2 0x1A0 DUP3 ADD MLOAD PUSH32 0x30644E72E131A029B85045B68181585D2833E84879B9709143E1F593F0000001 SUB MOD PUSH32 0x30644E72E131A029B85045B68181585D2833E84879B9709143E1F593F0000001 DUP1 PUSH1 0xC0 DUP5 ADD MLOAD PUSH2 0x244 CALLDATALOAD MULMOD DUP3 ADDMOD SWAP1 POP PUSH32 0x30644E72E131A029B85045B68181585D2833E84879B9709143E1F593F0000001 DUP1 PUSH1 0xE0 DUP5 ADD MLOAD PUSH2 0x264 CALLDATALOAD MULMOD DUP3 ADDMOD SWAP1 POP PUSH32 0x30644E72E131A029B85045B68181585D2833E84879B9709143E1F593F0000001 DUP1 PUSH2 0x100 DUP5 ADD MLOAD PUSH2 0x284 CALLDATALOAD MULMOD DUP3 ADDMOD SWAP1 POP PUSH32 0x30644E72E131A029B85045B68181585D2833E84879B9709143E1F593F0000001 DUP1 PUSH2 0x120 DUP5 ADD MLOAD PUSH2 0x2A4 CALLDATALOAD MULMOD DUP3 ADDMOD SWAP1 POP PUSH32 0x30644E72E131A029B85045B68181585D2833E84879B9709143E1F593F0000001 DUP1 PUSH2 0x140 DUP5 ADD MLOAD PUSH2 0x2C4 CALLDATALOAD MULMOD DUP3 ADDMOD SWAP1 POP PUSH32 0x30644E72E131A029B85045B68181585D2833E84879B9709143E1F593F0000001 DUP1 PUSH2 0x160 DUP5 ADD MLOAD PUSH2 0x2E4 CALLDATALOAD MULMOD DUP3 ADDMOD SWAP1 POP PUSH2 0x1A14 DUP2 PUSH1 0x2 PUSH1 0x1 PUSH2 0x240 DUP7 ADD PUSH2 0x1231 JUMP JUMPDEST PUSH1 0x0 PUSH1 0x40 MLOAD PUSH2 0x240 DUP2 ADD PUSH1 0x40 MSTORE PUSH2 0x180 DUP2 ADD PUSH2 0x1C0 DUP3 ADD PUSH2 0x200 DUP4 ADD PUSH2 0x1BCA PUSH2 0x1C4 DUP5 DUP2 CALLDATALOAD DUP2 MSTORE PUSH1 0x20 SWAP2 DUP3 ADD CALLDATALOAD SWAP2 ADD MSTORE JUMP JUMPDEST PUSH2 0x204 CALLDATALOAD DUP3 MSTORE PUSH2 0x224 CALLDATALOAD PUSH1 0x20 DUP4 ADD MSTORE PUSH2 0x1BE9 PUSH2 0x160 DUP8 ADD MLOAD DUP4 DUP7 PUSH2 0x1265 JUMP JUMPDEST PUSH2 0x1BF3 DUP4 DUP6 PUSH2 0x117A JUMP JUMPDEST PUSH32 0x30644E72E131A029B85045B68181585D97816A916871CA8D3C208C16D87CFD47 PUSH1 0x20 DUP6 ADD MLOAD PUSH32 0x30644E72E131A029B85045B68181585D97816A916871CA8D3C208C16D87CFD47 SUB MOD PUSH1 0x20 DUP6 ADD MSTORE PUSH31 0xF312D6D0C720ABCFF5D187AB4101FABE7CF74105E965E036332BD99D951A2F PUSH1 0x40 DUP6 ADD MSTORE PUSH32 0x1AE3F8E97F0A54BD6651F45E31BFA85F35C1E4FDD0270C63927603518438153C PUSH1 0x60 DUP6 ADD MSTORE PUSH32 0x26C88D57067BC9F3B57425609AC862FFC04E09931B1BDF9FD3C4EFCBB188755A PUSH1 0x80 DUP6 ADD MSTORE PUSH32 0x127477B93D25C70C1196F697B825BE97445CEAD1F1031037C9A5FCB1E2DEC5CB PUSH1 0xA0 DUP6 ADD MSTORE PUSH2 0x1CEA PUSH1 0x60 DUP8 ADD MLOAD DUP5 PUSH1 0xC0 DUP8 ADD PUSH2 0x1265 JUMP JUMPDEST PUSH32 0x30644E72E131A029B85045B68181585D2833E84879B9709143E1F593F0000001 PUSH1 0x60 DUP8 ADD MLOAD PUSH2 0x160 DUP9 ADD MLOAD MULMOD SWAP3 POP PUSH32 0x30644E72E131A029B85045B68181585D2833E84879B9709143E1F593F0000001 PUSH32 0x2D965651CDD9E4811F4E51B80DDCA8A8B4A93EE17420AAE6ADAA01C2617C6E85 DUP5 MULMOD SWAP3 POP PUSH2 0x1D6A DUP4 DUP4 DUP4 PUSH2 0x1265 JUMP JUMPDEST PUSH2 0x1D77 DUP2 PUSH1 0xC0 DUP7 ADD PUSH2 0x117A JUMP JUMPDEST POP POP POP PUSH2 0x1D8B PUSH2 0x200 DUP5 ADD PUSH1 0xC0 DUP4 ADD PUSH2 0x117A JUMP JUMPDEST PUSH2 0x260 DUP4 ADD DUP1 MLOAD PUSH32 0x30644E72E131A029B85045B68181585D97816A916871CA8D3C208C16D87CFD47 SWAP1 DUP2 SUB MOD SWAP1 MSTORE PUSH2 0x1DCA PUSH2 0x240 DUP5 ADD PUSH1 0xC0 DUP4 ADD PUSH2 0x117A JUMP JUMPDEST PUSH32 0x198E9393920D483A7260BFB731FB5D25F1AA493335A9E71297E485B7AEF312C2 PUSH2 0x100 DUP3 ADD MSTORE PUSH32 0x1800DEEF121F1E76426A00665E5C4479674322D4F75EDADD46DEBD5CD992F6ED PUSH2 0x120 DUP3 ADD MSTORE PUSH32 0x90689D0585FF075EC9E99AD690C3395BC4B313370B38EF355ACDADCD122975B PUSH2 0x140 DUP3 ADD MSTORE PUSH32 0x12C85EA5DB8C6DEB4AAB71808DCB408FE3D1E7690C43D37B4CE6CC0166FA7DAA PUSH2 0x160 DUP3 ADD MSTORE PUSH1 0x20 DUP2 PUSH2 0x180 DUP4 PUSH1 0x8 PUSH2 0x7D0 GAS SUB STATICCALL SWAP1 MLOAD AND SWAP3 SWAP2 POP POP JUMP JUMPDEST PUSH1 0x40 MLOAD PUSH2 0x3A0 DUP2 ADD PUSH1 0x40 MSTORE PUSH2 0x1E91 PUSH2 0x20A JUMP JUMPDEST PUSH2 0x1E9B DUP4 DUP3 PUSH2 0x254 JUMP JUMPDEST PUSH2 0x1EA4 DUP2 PUSH2 0x9E3 JUMP JUMPDEST PUSH2 0x1EAE DUP4 DUP3 PUSH2 0xDC4 JUMP JUMPDEST PUSH2 0x1EB7 DUP2 PUSH2 0xF26 JUMP JUMPDEST PUSH2 0x1EC0 DUP2 PUSH2 0x1276 JUMP JUMPDEST PUSH2 0x1EC9 DUP2 PUSH2 0x1918 JUMP JUMPDEST PUSH2 0x1ED2 DUP2 PUSH2 0x1A18 JUMP JUMPDEST PUSH2 0x1EDB DUP2 PUSH2 0x1B98 JUMP JUMPDEST PUSH2 0x3A0 DUP3 SUB PUSH1 0x40 MSTORE DUP1 PUSH1 0x0 MSTORE PUSH1 0x20 PUSH1 0x0 RETURN JUMPDEST PUSH1 0x0 DUP1 PUSH2 0x380 DUP4 DUP6 SUB SLT ISZERO PUSH2 0x1F01 JUMPI PUSH1 0x0 DUP1 REVERT JUMPDEST PUSH2 0x300 DUP4 ADD DUP5 DUP2 GT ISZERO PUSH2 0x1F13 JUMPI PUSH1 0x0 DUP1 REVERT JUMPDEST DUP4 SWAP3 POP DUP5 PUSH2 0x380 DUP6 ADD GT ISZERO PUSH2 0x1F27 JUMPI PUSH1 0x0 DUP1 REVERT JUMPDEST DUP1 SWAP2 POP POP SWAP3 POP SWAP3 SWAP1 POP JUMP INVALID LOG2 PUSH5 0x6970667358 0x22 SLT KECCAK256 0xC2 0xA9 GT 0xDC 0xB8 SWAP4 PUSH2 0xF57E AND 0xF7 CALLDATALOAD 0xCF SHR 0xB0 0x26 PUSH30 0x3E3F63F5F2F14BC27FF5772BC07E9B64736F6C634300081C003300000000 "
        },
        "methodIdentifiers": {
          "verifyProof(uint256[24],uint256[4])": "6183f6b4"
        }
      },
      "storageLayout": {
        "storage": [],
        "types": null
      }
    }
  }
}